:020000040800F2
:10000000C002012051010008FB160008251300085A
:10001000F9160008F3010008452000080000000060
:100020000000000000000000000000000F1E00089B
:10003000F501000800000000FD160008111E000870
:100040006B0100086B0100086B0100086B010008E0
:100050006B0100086B0100086B0100086B010008D0
:100060006B0100086B0100086B0100086B010008C0
:100070006B0100086B0100086B0100086B010008B0
:100080006B0100086B0100086B0100086B010008A0
:100090006B0100086B0100086B0100086B01000890
:1000A0006B0100086B0100086B0100086B01000880
:1000B0006B0100086B0100086B0100086B01000870
:1000C0006B0100086B0100086B0100086B01000860
:1000D0006B0100086B0100086B0100086B01000850
:1000E0006B0100086B0100086B0100086B01000840
:1000F0006B0100086B0100086B0100086B01000830
:100100006B0100086B0100086B0100086B0100081F
:100110006B0100086B0100086B0100086B0100080F
:100120006B0100086B0100086B0100086B010008FF
:100130006B0100086B0100086B010008DFF80CD0B0
:1001400000F03CF800480047E9380008C0020120F0
:100150000648804706480047FEE7FEE7FEE7FEE761
:10016000FEE7FEE7FEE7FEE7FEE7FEE7C11E00084A
:100170003D01000840EA01039B0703D009E008C9DC
:10018000121F08C0042AFAD203E011F8013B00F85C
:10019000013B521EF9D27047D2B201E000F8012BA8
:1001A000491EFBD270470022F6E710B513460A46F7
:1001B00004461946FFF7F0FF204610BD064C074DD8
:1001C00006E0E06840F0010394E807009847103427
:1001D000AC42F6D3FFF7B6FFB8470008D84700088F
:1001E000A0F13001092901D8C8B270473738C0B230
:1001F0007047FEE7704700001348016889050FD576
:10020000016821F400710160016841F4006101603E
:10021000016821F400610160016841F4007101602E
:10022000016849050FD5016821F48061016001680A
:1002300041F480510160016821F48051016001683E
:1002400041F48061016070470040005804494A69E8
:1002500022F4FF6242EAC000024A1043486170473C
:100260000040005802000100054910B54C6944F0F7
:1002700001044C610260BFF36F8F436010BD00004A
:100280000040005830B50B4C8023626942F4802254
:100290006261EFF3108272B620C920C05B1E13F0BA
:1002A000FF03F9D12069C043C003FBD582F3108856
:1002B00030BD00000040005870B5064600F0BAF9A5
:1002C0000546164C05E000BF00F0B4F9401BB042F3
:1002D0001DD22069C003F7D42069C10701D00121D4
:1002E00021614CF2FA31014010F0000F01D0A069F9
:1002F000A061880000D0216159B109484160012006
:1003000070BD00BF00F096F9401BB04201D303203E
:1003100070BD20694003F5D4002070BD0040005836
:10032000A802002070B5044600F084F90546601C60
:1003300002D004480078044400F07CF9401BA0423D
:10034000FAD370BD100000200248016821F400417A
:1003500001607047004000582DE9F04705461D48F0
:100360000F46017801290ED0012101704FF00009DC
:1003700080464FF47A7AC0F804905046FFF79CFF0D
:10038000060003D021E00220BDE8F087286802289B
:1003900019D1C01E38606C680AE02046FFF756FF8E
:1003A0005046FFF789FF060001D03C6005E0641C61
:1003B000D5E901010844A042EFD80748416940F25D
:1003C000FA7291434161FFF717FF88F800903046B9
:1003D000DAE70000A802002000400058054900208C
:1003E0004A6942F000424A614969002900DB012064
:1003F00070470000004000582DE9F047154C0646B4
:100400001546207898468A4601280AD00120207097
:1004100000274FF47A7948466760FFF74DFF18B11F
:100420000FE00220BDE8F087012E0CD0294650468F
:10043000FFF728FF4846FFF73FFF07494A69B243E5
:100440004A612770EEE72A4643465046FFF70CFF05
:10045000F0E70000A80200200040005806490020F4
:100460004A69002A07DA054A8A60054A8A604969AA
:10047000002900DA01207047004000582301674539
:10048000AB89EFCD2DE9FC4FDFF884A1DFF880E1E7
:100490000023012503244FF00F0C0AF1040BAEF1E9
:1004A000800EADE005FA03F716EA07026FD04E683A
:1004B000012E05D0022E03D0112E01D0122E17D1FD
:1004C000D0F808905E0004FA06F829EA08090096B8
:1004D000D1F80C8008FA06F848EA0908C0F8088044
:1004E0004668BE430F79C7F300179F403743476004
:1004F000C6684FEA430804FA08F7BE4301978F68BD
:1005000007FA08F73743C7604E68022E01D0122E53
:1005100010D1DE0800EB86060096366A5F074FEAC8
:10052000D7690CFA09F7BE430F6907FA09F7374391
:10053000009E37620668019FBE430F7907F00307EC
:1005400007FA08F7374307604E68F60057D5314E73
:1005500023F003073E44B146B6689F074FEA177879
:100560000CFA08F7BE43B0F1904F04D02A4FB842BE
:1005700003D1012712E0002710E0284FB84201D133
:1005800002270BE0264FB84202D1032706E036E0EF
:10059000244FB84201D1042700E0072707FA08F7E3
:1005A0003743C9F80870DAF800605746D1F804807C
:1005B00096435FEAC83800D516433E60DBF800601A
:1005C0005F46D1F8048096435FEA883800D5164329
:1005D0003E60DEF800607746D1F8048096435FEA1B
:1005E000C82800D516433E60094F7C3F3E68D1F8CD
:1005F000048096435FEA882800D516433E605B1C62
:100600000A681646DA407FF44DAFBDE8FC8F000063
:10061000800800580000014000040048000800481D
:10062000000C0048001000480AB1816170478162E7
:1006300070470000014880687047000010000020EB
:10064000014840687047000010000020024881689F
:10065000027811448160704710000020094810B5ED
:100660000168002441F480710160032000F060F80B
:10067000012000F009F808B1012401E000F024F89D
:10068000204610BD0040005870B50E4E05460024AF
:100690003078A0B100F074FA31784FF47A72B2FB7E
:1006A000F1F1B0FBF1F000F029FE40B9102D06D2B7
:1006B00000222946501E00F01BF8756000E001245E
:1006C000204670BD1000002010B5002201216FF0FF
:1006D000090000F00DF801210022481F00F008F881
:1006E00000220121BDE81040C81E00F001B8000042
:1006F000F0B40E4B1B680C46C3F30223C3F107058D
:10070000042D00D90425191D072901D2002300E07A
:10071000DB1E012606FA05F1491E214099409E4044
:10072000761E16403143F0BC01F08DBC0CED00E0AC
:10073000064900F0070208684FF6FF03184040EA38
:100740000220034A10430860704700000CED00E0EF
:100750000000FA050248006800F4C060704700001D
:10076000000400580248016841F48071016070473C
:10077000000400582DE9F0410446002700783E4669
:1007800040064FF0B04517D5206B78B1B0F5800F1B
:1007900007D0B0F5000F3BD0B0F5400F38D001279F
:1007A00009E0E86840F48030E86031E0201D00F0A6
:1007B000A6FF07002CD03E462088000546D5D5F878
:1007C000900000F44076206CB0423ED0FFF7CAFFA4
:1007D0003EB3D5F89000D5F8901041F48031C5F8BB
:1007E0009010D5F8901021F48031C5F89010216C4C
:1007F00020F440700843C5F89000D5F8900010F040
:10080000010F22D0FFF716FF064641F2883818E0A4
:10081000206BD5F8881021F440010143C5F88810F9
:10082000CAE7206CD5F8901021F440710143C5F857
:1008300090100AE0FFF7FEFE811B414501D9032716
:1008400003E000F07EFE0128F4D13E462078C00788
:1008500007D0A069D5F8881021F003010143C5F83D
:1008600088102078800707D5E069D5F8881021F432
:1008700040610143C5F888102078C00602D5A06AFF
:1008800000F0BFFE2078800602D5E06A00F0B9FED5
:100890002078400702D5206A00F0A4FE20780007E7
:1008A00002D5606A00F09EFE2088C00513D5606BFB
:1008B00000F08FFE606BB0F1006F03D1E86840F08C
:1008C0008070E860606BB0F1806F04D1201D00F093
:1008D00050FF00B10646208880051BD5A06BB0F103
:1008E000804F10D0B0F1004F0DD060B120F0805794
:1008F000002000F091FE384600F06BFEA06BB0F1D6
:10090000C05F03D006E000F087FEF7E7E86840F03C
:100910008070E8602088400518D5E06BD5F8881015
:1009200021F040510143C5F88810E06BB0F1005F41
:1009300003D1E86840F48030E860E06BB0F1805F9C
:1009400004D1201D00F04FFF00B106462088C004EE
:1009500007D5606CD5F8941021F440410143C5F8E7
:100960009410208880040BD5E06C696A21F0300176
:1009700001436962A06C696A21F003010143696265
:100980003046BDE8F08100002DE9F0410F4605003A
:1009900077D0794E306800F00700B84212D2306844
:1009A00020F0070038433060FFF744FE044604E0BF
:1009B000FFF740FE001B02287DD8306800F00700DA
:1009C000B842F5D128784FF0B044800715D5A86813
:1009D000A16821F0F0010143A160FFF72BFE8046E2
:1009E00006E000BFFFF726FEA0EB0800022862D851
:1009F000A068C0F300400028F4D02878800617D5FE
:100A00006869D4F8081121F0F0010143C4F8081115
:100A1000FFF710FE804605E0FFF70CFEA0EB080094
:100A2000022848D8D4F80801C0F340400028F3D089
:100A30002878400618D5A869D4F8081121F00F01CC
:100A400041EA1010C4F80801FFF7F4FD804605E004
:100A5000FFF7F0FDA0EB080002287CD8D4F80801CD
:100A6000C0F300400028F3D02878400715D5E86887
:100A7000A16821F4E0610143A160FFF7DBFD80463E
:100A800006E046E0FFF7D6FDA0EB0800022862D89A
:100A9000A068C0F340400028F4D02878000716D59D
:100AA0002869A16821F4605141EAC001A160FFF703
:100AB000C1FD804606E04EE0FFF7BCFDA0EB08005C
:100AC000022848D8A068C0F380400028F4D02878D5
:100AD000C0072CD06868022805D0032806D0A8B12A
:100AE00000F020FD05E000F017FD02E02068C0F3F3
:100AF000406070B16868A16821F003010143A16002
:100B0000FFF798FD044641F288380AE000F030FD16
:100B1000EFE70120BDE8F081FFF78CFD011B4145A7
:100B200019D800F0F3FC6968B0EB810FF4D130689C
:100B300000F00700B84215D9306820F007003843AC
:100B40003060FFF777FD044607E000BFFFF772FD56
:100B5000001B022801D90320DCE7306800F0070001
:100B6000B842F3D100F00CF804490860FFF768FDC3
:100B7000BDE8F041FFF788BD004000581C00002090
:100B800010B500F00FF84FF0B0418968044A01F049
:100B9000F00102EB91010968B0FBF1F010BD00001B
:100BA000384700082DE9F04100F0B0FC204F38B381
:100BB000204C04282CD066004FF0B045082829D0DE
:100BC00000F001FD022808D003282AD000F0C7FC5D
:100BD00000F0F00007EB90000468E868E968C0F3F3
:100BE0000620604301F07002012101EB1212B0FBFC
:100BF000F2F2E86801EB5070B2FBF0F0BDE8F08172
:100C000000F0ADFC00F0F00007EB90000068F5E7A5
:100C10002046F3E72868C0F300500028F8D130469A
:100C2000ECE72868C0F300500028D6D13446D4E75A
:100C3000784700080024F4002DE9F04104007DD03D
:100C400020784FF0B045800661D500F05FFC064685
:100C500000F0B9FC76B10C2E01D101280AD0E06970
:100C60000028286842D040F001002860FFF7E2FC2D
:100C7000064630E000F07CFC10B1E0690028DED0D0
:100C800000F06DFC0146606A81420AD200F02EFE3F
:100C9000002853D1606A00F07AFC206A00F06EFCF4
:100CA00009E000F074FC206A00F068FC606A00F063
:100CB0001DFE0028EDD1FFF763FFF7490860F748F4
:100CC0000068FFF7E1FC0028E3D120E0FFF7B2FC69
:100CD000801B022874D800F04BFC0028F6D0606A14
:100CE00000F055FC206A00F049FC10E020F0010003
:100CF0002860FFF79FFC064605E000BFFFF79AFC5F
:100D0000801B0228E6D800F033FC0028F6D12078BA
:100D1000C0073CD000F0FAFB064600F054FC082E59
:100D200013D00C2E01D103280FD06068B0F5803F9E
:100D3000286811D020F48030286000E008E2606864
:100D4000C0B1FFF777FC06460FE000F0E5FBF0B11D
:100D50006068002893D01AE040F48030ECE700BFD0
:100D6000FFF768FC801B6428B4D800F0D5FB00288E
:100D7000F6D00CE0FFF75EFC064604E0FFF75AFCF5
:100D8000801B6428A6D800F0C7FB0028F6D1207885
:100D900080073CD500F0BAFB064600F014FC042E98
:100DA0000FD00C2E01D102280BD0E0680028286853
:100DB0001CD040F480702860FFF73CFC064610E031
:100DC0003AE100F0AFFB10B1E0680028C2D0206922
:100DD00000F0AEFB1BE000BFFFF72CFC801B0228DD
:100DE00090D800F09FFB0028F6D0F0E720F4807048
:100DF0002860FFF71FFC064605E000BFFFF71AFC5E
:100E0000801B0228B0D800F08DFB0028F6D12068A6
:100E1000010701D4C1064ED56169E1B3C0064BD5C7
:100E200000F096FB98B9D5F8940040F00100C5F8A1
:100E30009400FFF7FFFB064605E000BFFFF7FAFB53
:100E4000801B022890D800F083FB0028F6D0D5F84C
:100E5000940040F00400C5F89400FFF7EBFB064651
:100E600005E000BFFFF7E6FB801B03288AD8D5F812
:100E70009400C0F3C0000028F4D0A069D5F8941005
:100E800021F4706141EA0020C5F89400D5F894007F
:100E900020F0010000E035E0C5F89400FFF7CAFB40
:100EA000064604E0FFF7C6FB801B022898D800F036
:100EB0004FFB0028F6D14EE0D5F8940040F0010039
:100EC000C5F89400FFF7B6FB064604E0FFF7B2FB57
:100ED000801B022884D800F03BFB0028F6D0D5F810
:100EE000940020F00400C5F8940004E0FFF7A2FB92
:100EF000801B032886D8D5F89400C0F3C0000028D2
:100F0000F4D128E0D5F8940020F00400C5F894004E
:100F1000FFF790FB064604E0FFF78CFB801B0328DD
:100F200090D8D5F89400C0F3C0000028F4D1D5F8CB
:100F3000940020F00100C5F89400FFF77BFB064603
:100F400005E000BFFFF776FB801B022874D800F095
:100F5000FFFA0028F6D12078400750D5504F386866
:100F6000C0050DD4FFF7FEFBFFF764FB064604E067
:100F7000FFF760FB801B02285ED83868C005F7D5F4
:100F8000A068012816D00528D5F8900017D020F0C9
:100F90000100C5F89000D5F8900020F0040000BFD3
:100FA000C5F89000A06841F28836C8B1FFF742FB4F
:100FB00007460EE0D5F8900040F00100F0E740F061
:100FC0000400C5F89000F5E7FFF734FBC01BB04202
:100FD00032D8D5F89000C0F340000028F4D00EE0DD
:100FE000FFF728FB074604E0FFF724FBC01BB042D5
:100FF00022D8D5F89000C0F340000028F4D1207822
:1010000040062ED5A06A0028D5F8980015D040F0EB
:101010000100C5F89800FFF70DFB064605E000BF8C
:10102000FFF708FB801B022806D8D5F89800C0F30C
:1010300040000028F4D014E089E020F00100C5F859
:101040009800FFF7F7FA064605E000BFFFF7F2FA4F
:10105000801B02287BD8D5F89800C0F340000028F8
:10106000F4D1E06AF0B300F051FA0146E868E26AB0
:10107000022A19D00C296BD0286820F080702860D3
:10108000E86820F00300E860E86806490840E86086
:10109000FFF7D0FA044687E01C000020140000206F
:1010A00000040058FFFFFEEE236B00F003029A429B
:1010B0001AD1636B00F070029A4215D1A26BC0F393
:1010C00006239A4210D1E36B00F478129A420BD1B6
:1010D000236C00F060629A4206D1626C00F06040BE
:1010E000904200E056E03ED00C2962D028684001D2
:1010F0005FD4286820F080702860FFF79BFA0646CE
:1011000005E000BFFFF796FA801B022849D828683F
:101110008001F7D4D4E90C010843D4E90E2141EA57
:1011200002210843216C0843616C0843E968224AA4
:1011300011400843E860286840F080702860E86843
:1011400040F08050E860FFF775FA044607E028E0B9
:101150002FE000BFFFF76EFA001B022821D8286895
:101160008001F7D523E02868800120D4286840F06A
:1011700080702860E86840F08050E860FFF75AFA15
:10118000044604E0FFF756FA001B022809D8286835
:101190008001F7D50BE000BFFFF74CFA001B0228D7
:1011A00002D90320BDE8F08128688001F4D4002032
:1011B000F8E70120F6E700008C80C11170B504004B
:1011C00009D0606A002540B125616561A56294F887
:1011D0005D0040B10CE0012070BD6068B0F5827F19
:1011E000F4D0E561F2E784F85C50204600F056F850
:1011F000022084F85D002068016821F04001016050
:10120000E1684FF4E062914201D9002001E04FF41F
:101210008050B1F5706F02D0914200D0A562A188D4
:10122000228901F4827102F404421143227C02F00B
:1012300002021143227D02F001021143228B02F4CB
:1012400000721143227F02F03802114394F82020EB
:1012500002F080021143228D02F4005211432268F1
:101260001160A169042202EA114194F8242000F4DB
:10127000805002F01002114394F8342002F008026A
:101280001143A28902F47062114301432068416056
:101290002566012084F85D00002070BD10B586B081
:1012A000044614216846FEF77EFF134920688842F1
:1012B0001FD14FF0B040016E41F480510166016EC4
:1012C00001F480510591C16C41F00101C164C06C11
:1012D000694600F001000590E02000900220019096
:1012E000002002900390052004904FF09040FFF7FB
:1012F000C9F806B010BD00000030014010B5401E16
:10130000B0F1807F01D3012010BD4FF0E024606177
:101310000F21601700F097FE0020A06107202061D8
:10132000002010BDFEE700002DE9F84F0446894675
:1013300000204FF4806201E0401C80B20B5C0BB1D6
:101340009042F9D30521A17000212170617084F8C9
:101350004410E1700A464B1E8A46C4F8881000BF4C
:1013600004EBC201521CC1E912A3D2B2082AF7D37E
:101370000021FF256218491CC9B215714029F9D313
:1013800099F800103A2903D084F800A0BDE8F88F3E
:101390000121802802D921706170F7E7A0F10308CC
:1013A0008B4621701FFA88F1484602F053FA002755
:1013B0000126009007E03146484602F04BFA3844D7
:1013C000B61CC7B2B6B24645F5DBF843401C0099DF
:1013D000C0B281421DD156460121484602F03AFA78
:1013E000E0700521484602F035FA074603214846D9
:1013F00002F030FA07EB0020C4F8880007214846C5
:1014000002F028FA062868D2DFE800F0064F52679B
:10141000546484F801B0B9E7A67000202118401C7C
:10142000C0B20D714028F9D30025092609E000BF9C
:1014300006EB4501484602F00DFA61196D1C087172
:10144000EDB2E078A842F3D8C0F3850084F84400F8
:101450000025B04624E000BF08EBC500C6B2314607
:10146000484602F0F7F90746B11C484602F0F2F987
:1014700007EB0027311D484602F0ECF907EB004767
:10148000B11D484602F0E6F907EB006104EBC50028
:10149000C164D4F8881001EB85016D1CEDB2816444
:1014A00094F84400A842D7D870E784F802B06DE7FA
:1014B000022000E00320A0700B21484602F0CAF988
:1014C00005460921484602F0C5F905EB0020C4F89D
:1014D00088005BE70420A07058E70520FBE70000C8
:1014E00010B5044800F06AFE0248BDE8104008301C
:1014F00000F046BE8400002008B54FF0B041CA6C31
:101500000243CA64C96C0140009108BD4FF0B0406D
:10151000806800F00C0070474FF0B0400068C0F3E6
:10152000404070474FF0B0400068C0F380207047E3
:101530004FF0B0414A6822F0FE4242EA0060486043
:1015400070474FF0B040D0F89000C0F340007047B3
:101550004FF0B040D0F89400C0F3400070474FF017
:10156000B040006800F0F000B02800D9B02070470B
:101570004FF0B0400068C0F3400070474FF0B041FA
:101580004A6822F47F4242EA0020486070474FF0E8
:10159000B0410A6822F0F00202430A6070474FF03F
:1015A000B040016821F08061016070474FF0B040A9
:1015B000016841F08061016070474FF0B040006801
:1015C000C0F3C06070474FF0B040C06800F0030047
:1015D00070474FF0B04151F8882F22F0406202432B
:1015E0000A60704710B54FF0B04151F8883F4FF492
:1015F0007F2202EA1014A34302EA001003430B60A7
:1016000010BD4FF0B04151F8882F030C1B049A43D2
:1016100042EA0040086070474FF0B04151F8882F0F
:1016200022F0404202430A60704700002DE9F04179
:1016300086B014216846FEF7B6FD0120FFF75CFF77
:101640000220FFF759FF012214024FF09047214674
:101650003846FEF7E9FFDFF84C80002202214046C1
:10166000FEF7E2FF0126CDE9004600240225694687
:101670003846CDE90245FEF705FF280200900A48EA
:10168000CDE9010469463846FEF7FCFECDE9005677
:1016900069464046CDE90245FEF7F4FE06B0BDE8D6
:1016A000F08100000004004800003110114810B51E
:1016B0000F4901604FF48271416000214FF4E062F4
:1016C000C0E902124FF400720161C0E9051208225C
:1016D000C0E9072107234162C0E90A13C0E90C12DF
:1016E000FFF76CFD002801D072B6FEE710BD0000C8
:1016F0000030014020000020FEE7FEE770472DE9A2
:10170000F04106460025FFF74AFFFEF793FF044627
:1017100004E0FEF78FFF001B02281DD8FFF74DFFE6
:101720000028F6D14FF0B0442069316820F4FE4023
:1017300040EA012020612069716820F47810084394
:101740002061FFF733FFFEF775FF074606E0FEF75F
:1017500071FFC01B022801D9032507E0FFF72DFF09
:101760000128F4D120693169084320612846BDE889
:10177000F0812DE9F04106460025FFF710FFFEF746
:1017800059FF044604E0FEF755FF001B02281DD850
:10179000FFF713FF0028F6D14FF0B04420693168FD
:1017A00020F4FE4040EA012020612069B16820F069
:1017B000606008432061FFF7F9FEFEF73BFF074634
:1017C00006E0FEF737FFC01B022801D9032507E01A
:1017D000FFF7F3FE0128F4D1206931690843206145
:1017E0002846BDE8F0812DE9F04106460025FFF7C7
:1017F000D6FEFEF71FFF044604E0FEF71BFF001BAA
:1018000002281DD8FFF7D9FE0028F6D14FF0B044CA
:101810002069316820F4FE4040EA012020612069FF
:10182000F16820F0604008432061FFF7BFFEFEF73B
:1018300001FF074606E0FEF7FDFEC01B022801D9A6
:10184000032507E0FFF7B9FE0128F4D120693169CB
:10185000084320612846BDE8F081000070B5214AA8
:101860008EB00DF1100C78CA8CE8780038CA08AE3A
:1018700086E838003CCA8DE83C000024B1F5007FC2
:101880006A46214607D008AB53F8215085420BD356
:1018900052F821400BE004AB53F821508542F7D2B7
:1018A000491C0429F8D302E0491C0329ECD30E4E4D
:1018B000306820F0070020433060FEF7BBFE05468D
:1018C00008E000BFFEF7B6FE401B022802D9032045
:1018D0000EB070BD306800F00700A042F2D10020C9
:1018E000F6E700000C4700080040005810B50F490B
:1018F000B02801D9C86A03E03C2202EA90000858E7
:101900004FF0B041D1F80811094A01F00F0152F827
:101910002110B0FBF1F4FEF71DFF01460548B4FBB2
:10192000F0F0BDE81040FFF799BF000078470008CD
:101930003847000840420F003EB500F02DFB10B3C1
:1019400000F023FBFF208DF80000002401216846F1
:1019500000F02EFB641C0A2CF8DB00F00FFB00F0FB
:10196000A5F94FF0FF3400286FDB50A0D0E900103C
:10197000CDE90110062101A800F01AFB00F056F98C
:10198000012862D102E06FF01C003EBD00F08EF92C
:1019900000285ADB47A1D1E90001CDE90101062168
:1019A00001A800F005FB00F041F9012804D000F087
:1019B000ECFA6FF001003EBD042101A800F0C2F86E
:1019C000002804DA00F0E1FA6FF002003EBD9DF855
:1019D0000600C00703D09DF80700AA2804D000F035
:1019E000D4FA6FF003003EBD00F060F900282CDB54
:1019F00032A0D0E90010CDE90110062101A800F0C5
:101A0000D7FA00F013F9012804D000F0BEFA6FF005
:101A100004003EBD00F04AF9002816DB29A1D1E9F7
:101A20000001CDE90101062101A800F0C1FA00F092
:101A3000FDF830B10128D7D000F0A7FA6FF005000B
:101A40003EBD00F033F9002803DA00F09EFA20468C
:101A50003EBD1EA1D1E90001CDE90101062101A889
:101A600000F0A6FA00F0E2F820B100F08EFA6FF074
:101A700006003EBD042101A800F064F8002804DA45
:101A800000F083FA6FF007003EBD9DF804000321CB
:101A9000B1EB901F04D000F078FA6FF008003EBD63
:101AA00000F073FA00F07EFA00203EBD4000000016
:101AB0000095000048000001AA87000077000000A0
:101AC00000FF00006940000000FF00007A000000F5
:101AD00000FF00001CB5044600F05EFA50B100F0B3
:101AE0004DFA00F0E3F8002807DA00F04EFA4FF064
:101AF000FF301CBD6FF01C001CBD10A1D1E900011E
:101B0000CDE90001200E8DF80100200C8DF80200B7
:101B1000200A8DF803008DF804400621684600F085
:101B200047FA00F083F820B100F02FFA6FF00100BF
:101B30001CBD00F02AFA00201CBD0000520000006D
:101B400000FF000038B50546FF200C468DF8000068
:101B50000BE001222946684600F04CFA10B14FF024
:101B6000FF3038BD641EA4B26D1C002CF1D10020E2
:101B700038BD38B5044600F00FFA58B100F0FEF950
:101B8000FE2000F070F8002807DA00F0FEF94FF0B0
:101B9000FF3038BD6FF01C0038BD4FF40071204697
:101BA000FFF7D0FF002804DA00F0EFF96FF0010032
:101BB00038BD02216846FFF7C5FF002804DA00F0AF
:101BC000E4F96FF0020038BD00F0DFF9002038BD05
:101BD0000EB500F0E1F9A8B100F0D0F911A1D1E9FA
:101BE0000001CDE900010621684600F0E1F901217C
:101BF00002A8FFF7A7FF002807DA00F0C6F94FF0A8
:101C0000FF300EBD6FF01C000EBD00F00FF820B1CC
:101C100000F0BBF96FF001000EBD00F0B6F9002036
:101C20000EBD00004C00000000FF00001CB5FF20AE
:101C30008DF8040000F086F909E00122694601A848
:101C400000F0D8F950B99DF80000000603D500F067
:101C500069F90028F1D100F06BF908B1FF201CBD33
:101C60009DF800001CBD7CB50446FF208DF80400E3
:101C700000F068F94FF0FF350DE00122694601A838
:101C800000F0B8F928B99DF80000A04207D0FF285D
:101C900001D028467CBD00F045F90028EDD100F0C8
:101CA00047F90028F6D06FF01D007CBD08B500F0A4
:101CB00049F901216846FFF745FF002802DA4FF095
:101CC000FF3008BD9DF80000FF2803D000F02AF97E
:101CD0000128EED000F02CF90028F2D06FF01D00A2
:101CE00008BD00001CB5044600F056F950B100F0E4
:101CF00045F9FFF7DBFF002807DA00F046F94FF05F
:101D0000FF301CBD6FF01C001CBD10A1D1E900010B
:101D1000CDE90001200E8DF80100200C8DF80200A5
:101D2000200A8DF803008DF804400621684600F073
:101D30003FF9FFF77BFF20B100F027F96FF00100BA
:101D40001CBD00F022F900201CBD0000590000005D
:101D500000FF00003EB5044600F01EF918B300F085
:101D60000DF9FC208DF8000017A0012100680190FA
:101D7000684600F01DF94FF40071204600F018F994
:101D8000022101A800F014F9012102A8FFF7DAFEF0
:101D90009DF8080000F01F00052807D000F0F5F8B6
:101DA0004FF0FF303EBD6FF01C003EBDFFF77EFFE1
:101DB000002804DA00F0E9F86FF001003EBD00F001
:101DC000E4F800203EBD0000FFFF00001CB500F05D
:101DD000E3F8A8B100F0D2F8FD208DF80000012151
:101DE000684600F0E5F8012101A8FFF7ABFEFFF718
:101DF0005DFF002807DA00F0C8F84FF0FF301CBD87
:101E00006FF01C001CBD00F0C0F800201CBD704726
:101E1000FEF71CBC30B5AFB048216846FEF7C3F9E9
:101E20001C2126A8FEF7BFF9502112A8FEF7BBF926
:101E30002248016821F4C06141F40071016000682A
:101E4000032400F4C0602D904FF48030CDE90040B1
:101E500000120390402004900BA90220102581E875
:101E6000310008200E9080030F90000311900011A4
:101E700010906846FEF7E0FE08B172B6FEE76F20EC
:101E8000CDE9260400248020CDE92A402894299415
:101E9000032126A82C94FEF777FD08B172B6FEE761
:101EA0004FF40050129012A8CDE92445FEF762FCD1
:101EB000002801D072B6FEE72FB030BD00040058F4
:101EC00015480021016014488030026842F4700215
:101ED00002604FF0B040026842F0010202604FF42D
:101EE000E022826002680D4B1A400260D0F8942014
:101EF00022F00502C0F89420D0F8982022F00102C8
:101F0000C0F89820064AC2600261026822F480226A
:101F1000026081617047000008ED00E0FBFEF6FA08
:101F2000001004220148806900470000840000205E
:101F300010B5034C206A8047E069BDE810400047B7
:101F40008400002010B5044C40F6B8302169884761
:101F50006069BDE8104000478400002010B5064CC1
:101F60006068804718B1207818B1002010BD0220A9
:101F700010BD012010BD0000840000204FF09040F3
:101F8000816941F08071816170474FF090408169B3
:101F900041F480718161704701484068004700004A
:101FA000840000200149012008707047840000204F
:101FB00010B50F4A00239468A407FCD5C35C1373C3
:101FC00001230AE09468A407FCD5C45C14739468E8
:101FD000E407FCD0147B5B1C9BB28B42F2D390686D
:101FE000C007FCD0107B906810F4F05FFBD110BDEF
:101FF0000030014070B5124B01249D68AD07FCD53F
:1020000005781D730DE09D68AD07FCD505781D733F
:102010009D68ED07FCD01D7B0E19641C06F8015C61
:10202000A4B29442EFD39868C007FCD0187B214437
:1020300001F8010C986810F4F050FBD170BD00005D
:1020400000300140FEE70907090E002804DB00F11B
:10205000E02080F80014704700F00F0000F1E0204D
:1020600080F8141D7047000002480178491C017077
:102070007047000004000020094910B500200860E6
:1020800007481038016841F001010160FFF7ECFFDB
:1020900003481438016821F00101016010BD0000FF
:1020A0002444014002E008C8121F08C1002AFAD1E6
:1020B00070477047002001E001C1121F002AFBD1C8
:1020C00070470000044908680A6800F0010022F027
:1020D00001020A60704700001044014010B54FF043
:1020E000B040016E41F400310166FFF7BDFF0948C1
:1020F000016841F00801016006494FF6FF102831E0
:102100000860091D4FF4FA400860BDE81040FFF771
:10211000B3BF0000004401400248006800F0010025
:10212000704700000044014005490A6822F001029E
:102130000A6003492C31401E0860FFF79DBF000074
:10214000004401400149401E086070472844014096
:102150000248016841F001010160704700440140FC
:102160000248016821F0010101607047004401400C
:102170004FF09040006940F34020401C7047000041
:102180000749016007494160074981600749C1600B
:1021900007490161074941610749816170470000B2
:1021A000DD200008452100082921000851210008F0
:1021B00019210008C52000086121000800210170D4
:1021C00001494160704700007121000870B5044664
:1021D0000020E070401E2063204601F06BFE08B135
:1021E000042070BD04F2322001F078FB054694F81B
:1021F00034004AF65526EB2803D0E92801D0E82818
:102200002ED1B54207D1082218A104F1860001F0B1
:1022100009FD0028E5D004F13F0001F05FFB411EFD
:1022200008421DD14FF40071884219D3884217D853
:1022300094F84100A0B1411E084211D194F8440025
:10224000012801D002280BD104F1450001F046FB22
:1022500030B104F14A0001F041FB08B1002070BD2B
:10226000B54201D1022070BD032070BD46415433F8
:10227000322020200000000000E0401C02780AB15B
:102280008A42FAD1D0B270478269891E921E8A4270
:1022900001D800207047C26A408900FB01207047C6
:1022A0002DE9F05F82460C4601F11A0001F016FBA1
:1022B00078BB2078012700F03F00401E00EB800132
:1022C000DFF8589001EBC00500264FF6FF7B00BFFA
:1022D00019F80600204401F001FB80466FB1FF2D84
:1022E00017D801F0B9F807463AF815006D1C01F04F
:1022F000B3F887420DD1474601E0D84509D1761C95
:102300000D2EE5D32078400606D52FB13AF81500FA
:1023100010B10020BDE8F09F0120FBE7D04200088B
:102320002DE9F04106680F00804606D001F06EF9F5
:10233000022809D20120BDE8F081346914B1B069E6
:10234000A04207D8012405E0411CF4D0B1698142C4
:10235000F1D83C4670690028EDD0BC4216D1B06976
:10236000651CA84200D802252946404601F04EF9D6
:102370000128E0D0411CDED038B13069022805D3F5
:10238000B169814202D9044600E0A5B92546B06989
:102390006D1CA84202D80225022C0AD329464046C9
:1023A00001F034F938B10128C5D0411CC3D0A54291
:1023B000EDD10020BFE74FF0FF34224629463046DA
:1023C00001F01AFE30B95FB12A463946304601F0B5
:1023D00013FE28B1012800D0012425462846AAE78B
:1023E0003561D6E90501891E884201D8401E706119
:1023F000307940F001003071F0E700002DE9F84F2E
:10240000824600680E688846C768002416F8015B9B
:10241000284600F017F980BB35B140F2B5112846C7
:1024200000F0E4FF05003AD0681C38D0B5F5803FD5
:1024300003D3280C27F81400641C202D10D32F2D53
:1024400010D05C2D0ED0802D04D2294677A0FFF746
:1024500013FF90B9FF2C22D227F81450641CD5E743
:10246000042507E0002500E0761C30782F28FBD0FB
:102470005C28F9D0C8F8006009E010E007EB4400E0
:1024800030F8020C202801D02E2802D1641E002C26
:10249000F4D1002027F814000CB1002603E0062038
:1024A000BDE8F88F761C37F816002028FAD016B948
:1024B00038882E2803D145F0030500E0641E2CB1B6
:1024C00007EB440030F8020C2E28F7D10B22202114
:1024D0000AF1200001F0BCFB4FF000084FF0080BA0
:1024E000CDF8008037F8160006F101065FEA000912
:1024F00024D0B9F1200F04D0B9F12E0F04D1A64297
:1025000002D045F00305EDE70098584501D2A642F8
:1025100019D1BBF10B0F0FD0A64201D045F0030536
:102520000CD84FF0080000904FEA886026464FF024
:102530000B0B4FEA1068D5E745F003059AF8200029
:10254000E5284FD051E04846B9F1800F0DD345F052
:10255000020540F2B51100F061FF8146000604D586
:10256000354909F07F0011F800904846B9F1FF0F96
:1025700013D90099ABF10100814204D345F0030562
:10258000CDF800B0AEE700984FEA1922504480F829
:1025900020200098401C00901BE0B9F1000F04D0EF
:1025A000014626A0FFF768FE20B14FF05F0945F015
:1025B00003050EE0A9F14100192801D848F00208EE
:1025C000A9F16100192804D8413048F001081FFA28
:1025D00080F9009A0AEB020181F820900098401CD3
:1025E00000907FE705218AF82010BBF1080F03D186
:1025F0004FEA88604FEA1068C8F38100032803D0CF
:102600006FEA0800800701D145F00205A80709D448
:102610005FEAC87001D045F010055FEA487001D547
:1026200045F008058AF82B50002039E7222A3A3C69
:102630003E3F7C7F00000000DD4200082B2C3B3D2C
:102640005B5D0000002800D0002070472DE9F041BC
:102650000C46054601F0F0FD00BB21462846FFF779
:1026600013FE0646286305F134004FF40072002182
:10267000044601F0EDFAA0460127002400E03C44A6
:102680006889A04207D9321968783B46414600F074
:10269000A0FA0028F3D06889A04202D00120BDE84A
:1026A000F0810020FBE72DE9F04705460021D0F836
:1026B000009000F022FA002852D1FF24471EA046C5
:1026C000EF624846A96901F0F5FB060047D1E969C8
:1026D000087850B1CA7AE52802F03F02AA7136D0D4
:1026E000130704D50F2A32D105E0042637E00F2A5C
:1026F00001D0E4B120E095F82B20520629D44206FF
:1027000006D591F80D8000F0BF002A690446EA6200
:10271000A04209D14A7B424506D1D9F80C00FFF707
:10272000BFFD08B1641E00E0FF24E4B211E00846DA
:1027300001F031FD404512D095F82B00C00706D1BD
:102740000B2205F12001E86901F06CFA38B1FF2491
:10275000EF620021284600F005F80600B1D03046AF
:10276000BDE8F0872DE9F0470669076820368946FD
:1027700004464FF00008B6F5001F35D2A06910B12D
:10278000F10503D03DE00420BDE8F087401CA061C6
:10279000616929B17889401E10EA562F05D030E0D2
:1027A0003889B0EB561F1FD92BE0204600F02EFFD2
:1027B000054601281DD9681C14D0B869A8421AD84A
:1027C000B9F1000F10D020466169FFF7A9FD05009F
:1027D0000DD0012D0DD0681C04D029463846FFF7D6
:1027E00035FF40B10120CFE7C4F81880CBE70720C0
:1027F000CAE70220C8E7294638466561FFF744FD6D
:10280000A061C6F30800384434302661E06100203E
:10281000BAE72DE9F0470426FF24894605462746F6
:10282000D0F8008047E0404601F044FB060046D166
:10283000E969087880B1CA7AE52802F03F02AA71F6
:1028400008D02E2806D022F02003082B06D0B4464C
:10285000CC4506D0FF241EE0042630E04FF0010CEA
:10286000F6E70F2A01D014BB1CE0420605D54F7BCA
:1028700000F0BF002A690446EA62A04209D1487B01
:10288000B84206D1D8F80C0001F07CFB08B1641EF8
:1028900000E0FF24E4B200212846FFF763FF0600B2
:1028A00009D00CE0084601F076FCB84209D04FF0A0
:1028B000FF30E86205E0A9690029B4D10EB100201B
:1028C000A8613046BDE8F0872DE9F04F0446D0F806
:1028D000009090F82B0089B010F0A00F03D00620D4
:1028E00009B0BDE8F08F0025D9F80C0000E06D1CA0
:1028F00030F815100029FAD104F120010C226846A5
:10290000039101F09CF99DF80B00C00719D04020FD
:1029100084F82B00012633466946D9F80C20039829
:1029200000F01AFE2046FFF7BEFE10B9761C642E9A
:10293000F1D3642E0FD00428D2D19DF80B0084F877
:102940002B009DF80B00800707D50D200C35B5FB3B
:10295000F0F56D1C02E00720C2E7012500212046AA
:10296000276800F0CAF888B900263846A16901F046
:10297000A1FA58B9E0690078E5280AD048B10026E4
:1029800001212046FFF7EEFE0028EED0042812D0E9
:1029900012E0761C2846AE42F2D1451E059567D05E
:1029A0002169684201EB4011204600F0A6F85FEA79
:1029B000000803D076E00720804673E0039801F01A
:1029C000EAFB4FF6FF7B07904846A16901F072FAD7
:1029D0005FEA000866D1D9F80C0006900598D4F893
:1029E0001C80C0B20490079988F80D100F2188F858
:1029F0000B10002188F80C1008F11A0001F0C7FB39
:102A00000498DFF8A4A0401E00EB800101EBC00693
:102A1000002701E05D4503D0069830F81650761C7B
:102A20001AF8071001EB0800294601F0B0FB05B9C0
:102A30005D467F1C0D2FEDD35D4505D0069830F81F
:102A4000160008B1049803E0049840F04000049098
:102A500088F80000012189F8031000212046FFF7C3
:102A600081FE5FEA00081DD10598401E0590ABD19C
:102A70004846A16901F01EFA5FEA000812D120223F
:102A80000021E06901F0E4F80B22E069039901F00C
:102A9000D6F894F82B00E16900F0180008730120C3
:102AA00089F8030040461BE7D04200082DE9F041B9
:102AB000C16A044606690568481C04D0204600F037
:102AC0001CF8002817D1E5274FF001082846A16916
:102AD00001F0F0F960B9E1690F7085F803802169B0
:102AE000B14208D200212046FFF73CFE0028EDD07D
:102AF000042800D10220BDE8F0812DE9F0410768EB
:102B00000E460546B1F5001F36D2F00634D12E61CF
:102B1000AC6824B93878032805D3BC6A1CB178891D
:102B20004FEA402812E03889B0EB561F24D9B86A22
:102B300012E0284600F06AFD0446401C1AD0022C20
:102B40001AD3B869A04217D9A6EB08064645214614
:102B5000EFD23846FFF798FBC5E9054060B100EBBE
:102B60005620A861C6F3080038443430E8610020DC
:102B7000BDE8F0810120FBE70220F9E710B5FEF780
:102B8000DBFE002801DA012010BD002010BD09B1D4
:102B9000012070470020704770B51C4610460D4656
:102BA000FEF798FF00280EDB07E02846FEF7E1FF5E
:102BB000002808DB641E05F50075002CF5D1FFF731
:102BC00007F8002801DA012070BD002070BDFFF772
:102BD000C5B970B51C4610460D46FFF783F80028AE
:102BE0000EDB07E02846FFF7B5F8002808DB641E77
:102BF00005F50075002CF5D1FFF7E8F8002801DA9B
:102C0000012070BD002070BD1FB5FDF727FCFDF74A
:102C10009BFB02200090052001900E2002900948A5
:102C200009490088C0F3880003904FF40040086110
:102C300003A96846FDF790FBFDF7D0FB039804B0AD
:102C400010BD0000E075FF1F00400058084C0D4605
:102C50000646206840F4003020603046FDF762FBF5
:102C6000206840F0020020602846FDF75BFBF0E79B
:102C7000180400480B4D4FF4C8766424286840F4CB
:102C8000003028602046FDF74DFB286840F0020028
:102C90002860C4F5FA70FDF745FB3234B442EDD933
:102CA000EBE700001804004838B5044600F04CFA81
:102CB000002807D16946204601F0F0FA002801D12A
:102CC0000021216038BD70B50D46044611460363EE
:102CD00000F046F9002805D129462046BDE870409D
:102CE00000F001B870BD2DE9F0410C46074601F136
:102CF00016052146384600F006FA06000AD14CB106
:102D0000A07D38B1042300222946386B01F0EBF88E
:102D10000028EED03046BDE8F0812DE9FC410025C9
:102D20009046074604464E1E11E001AB012269465B
:102D3000404600F046F9019801280AD19DF80000AC
:102D40000D2804D06D1C04F8010B0A2801D0B542EF
:102D5000EBDB0020207015B13846BDE8FC81002077
:102D6000FBE7000017B581B0144602980090684652
:102D700000F054FD002802DA0B2004B010BD0A4A0E
:102D8000002352F8201001B10B70019901B10B70B2
:102D900042F820102CB1002201A902A800F060FF27
:102DA000EBE70020E9E700000C0000202DE9F743E5
:102DB0008EB005000BD002F03F06324669460FA8E0
:102DC00000F04EFF04004FF0000804D0C0E00920DE
:102DD00011B0BDE8F0830098019001A80F9900F0B0
:102DE0007FFB040004D19DF82F00000600D50624C7
:102DF00016F01C0F4CD04CB1042C03D101A8FFF7E6
:102E000063FD044646F008065CB1A1E09DF80A00A7
:102E100010F0110F01D007249AE0700701D50824A3
:102E200096E0300743D54D4F089839460E3001F0F3
:102E3000A6F908983946163001F0A1F908990098CA
:102E400000F02EFD089907462020C872002208993C
:102E5000009801F080F9089800211C3001F08FF9EA
:102E600000990120C87007B3D1F83090002239468C
:102E700001A801F036F904006AD14946009801F032
:102E800019F804000098A7F1010707610BD05FE073
:102E9000CCBB9DF80A00C10601D5042458E0B10757
:102EA00001D5C007B7D1300701D546F040060098DC
:102EB000016B296208996962089900F0F1FCA86029
:102EC00008981C3000F0FFFCE8600098286000982B
:102ED0004FF400720021C088A8802E7485F81180FC
:102EE000C5F81C8005F128008146C5F8148000F063
:102EF000AFFEB0062ED5EE6866B36E610098A96885
:102F0000408947020FE023E0284600F07FFB01469E
:102F1000012800D80224481C02D0F61B1CB104E092
:102F20000124F61B01E0BE42EED8A96184B9F00588
:102F300010D00098FFF7A8F970B100EB5622EA61B3
:102F40000098012349464078FFF726FE10B101247E
:102F5000C5F8008020463BE70224F9E70000215035
:102F600013B582B0040006D00022694603A800F021
:102F700077FE18B120E0092004B010BD0098206051
:102F80002046039900F0ACFA90B994F82B000006A3
:102F900007D4A079C00612D5E169009800F080FC42
:102FA000A06000980021C088A0802046FFF7A5FD02
:102FB000042804D00028DFD000212160DCE70520B0
:102FC000FAE72DE9FE4F884600211960994615461B
:102FD000044602A901F062F9002812D1607C0028A1
:102FE0000FD1207CC0070BD06169E0680127401A2F
:102FF0004FF0020A04F1280B854200D905467EE015
:103000000720BDE8FE8F6069C10560D1029949893A
:10301000491E11EA502609D108B32046A16900F0E3
:10302000F5FA02281DD3411C4CD0A061A169029879
:10303000FFF72AF9A8B130440190680A009027D020
:10304000029932184889824201D9801B0090DDE93B
:10305000003248784146FFF79FFD98BB05E0A06825
:10306000DFE784F811A00220CBE7207C00060CD516
:10307000E1690198081A0099884206D208EB4020BD
:103080004FF40072594600F0DAFD009846022CE039
:10309000E2690198824218D0207C00060AD5029885
:1030A000012359464078FFF794FD58B9207C00F081
:1030B0007F0020740298012359464078019AFFF757
:1030C0006BFD10B1677401209BE70198E061A08A55
:1030D000C0F30800C0F50076AE4200D92E460119B3
:1030E00032464046283100F0AAFDD9F80000AD1B59
:1030F0008119C9F800106069B04430446061002D46
:1031000081D100207DE738B50C460546694601F0BF
:10311000C5F8002813D1014628468CB1FFF779FB8A
:10312000042801D000280AD12146284600F0CDFA13
:1031300000212846FFF716FB042800D1002038BDE7
:10314000FFF7DBFC38BD0000F8B50446694601F026
:10315000A5F800280ED1217C4A060BD508060ED50D
:103160000098E2690123407804F12801FFF731FD5E
:1031700008B10120F8BD207C00F07F002074154EBE
:10318000216A009800F096FE0028F3D1656A29466E
:10319000E87A40F02000E872A268206800F0DBFFC7
:1031A00005F11C00E16800F0EAFF314605F1160068
:1031B00000F0E5FF002105F1120000F0E8FF0098A3
:1031C0000121C17000F0F4FF217C01F0BF012174E6
:1031D000F8BD00000000215011B59DB002220DA9DC
:1031E0001DA800F03DFD00280CD10D980090684608
:1031F0001D9900F075F9002804D19DF82B000006F8
:1032000002D506201EB010BD9DF80600C00701D0F3
:103210000720F7E707990D9800F042FB04469DF858
:103220000600C00610D50D980F90002111940FA82C
:10323000FFF763FC0028E5D100210FA8FFF7E9FAAA
:103240000028E5D00428DDD16846FFF72FFC0028D0
:10325000D8D134B100222146684600F042FF002850
:10326000D0D10D9800F0A4FFCCE72DE9FE4F044625
:103270000020884618609946154602A9204601F0AC
:103280000DF8002806D1607C002803D1207C80073F
:1032900002D40720BDE8FE8F6069012742194FF074
:1032A000020A04F1280B824200D2C54394E060690F
:1032B000C1056ED102994989491E11EA502612D1E1
:1032C00008B1A16902E0A06828B900212046FFF7F3
:1032D00027F800287DD001282DD0411C54D0A061B2
:1032E000A16801B9A060207C00060BD50298E269B4
:1032F000012340785946FFF76CFCA0BB207C00F00E
:103300007F002074A1690298FEF7BEFF98B1304497
:103310000190680A009027D03218029841898A42A9
:1033200001D9891B0091DDE9003240784146FFF761
:1033300050FCC0B903E084F811A00220AAE7E169BB
:103340000198081A009988420AD208EB40214FF4EC
:103350000072584600F073FC207C00F07F0020745F
:103360000098460227E00FE0E169019881420ED003
:10337000E168606988420AD2029801235946407880
:10338000019AFFF709FC10B16774012082E70198E8
:10339000E061A08AC0F30800C0F50076AE4200D913
:1033A0002E46204432464146283000F048FC207C1E
:1033B00040F080002074D9F80000AD1B8119C9F8D5
:1033C00000106069B04430446061E168884202D80E
:1033D00000E004E00846E060002D7FF468AF207C48
:1033E00040F040002074002054E7000010B5002297
:1033F000094B802801D202460BE0A1F58074B53C50
:1034000007D1FF2805D803EB4000A0F58050B0F8A5
:10341000002F104610BD00005E430008024610B5A4
:1034200000200C4B802A01D290B210BDB2F5803F33
:10343000FBD2A1F58074B53C04D010BD401C80B215
:10344000802803D233F810109142F7D18030C0B2F7
:1034500010BD00005E43000830B5B0F5803F20D2BB
:1034600080B2B0F5805F01D21B4900E01B4931F802
:10347000022B002A15D0904213D331F8024B230AB5
:10348000E5B252FA84F4844221D9092B09D2DFE84B
:1034900003F005090E10121416181A00801A31F8DC
:1034A000100030BD811A01F00101401A0DE0103802
:1034B0000BE0203809E0303807E01A3805E0083022
:1034C00003E0503801E0A0F5E35080B230BD002B9E
:1034D000CDD101EB4501CAE75E4400085046000823
:1034E00073B504460568019801E0401C019001781D
:1034F0002F29FAD05C29F8D00020A060019800782C
:10350000202807D2802084F82B0000212046FFF7D6
:10351000F4FA7CBD01A92046FEF770FF0028F8D11F
:103520002046FFF7C0F894F82B1028B10428F0D1FA
:103530004907EED405207CBD4907FCD4A079C0061C
:10354000F8D5208AC0F3080041192846343100F02C
:10355000A7F9A060DEE700002DE9FC4115461C46F6
:1035600007460B2200F06BFB052C11D91D4A0CE01D
:103570000021AD1C2346044663F35F044008E303C7
:1035800000D55440491C1029F4D328880028EFD1D5
:1035900007256E4604F00F003030392800D9C01DD1
:1035A00070556D1E2409F5D17E207055A5F10108D6
:1035B00007E000BFFFF746F810B1444506D0641C91
:1035C000641CAC4202D2385D2028F3D1082D02D20F
:1035D000705D6D1C00E020203855641C082CF5D36C
:1035E000BDE8FC812110010001684A1C02600878D6
:1035F000A0F16101192900D82038802803D302499D
:10360000084410F8800C7047DD4200082DE9F041B5
:1036100004680D4602290BD3A069A84208D9207876
:103620004FF0FF36012807D002282BD0032839D0CD
:1036300001263046BDE8F081606A05EB550700EBD6
:103640005721204600F036FC0028F2D1C7F30800CD
:1036500020447F1C90F83480606A00EB572120469C
:1036600000F028FC0028E4D1C7F30800204490F8BB
:10367000341048EA0120E90701D00609D9E7C0F370
:103680000B06D6E7606A00EB1521204600F012FC1D
:103690000028CED1E8B204EB4000343000F01EF92F
:1036A0000646C6E7606A00EBD511204600F002FC32
:1036B0000028BED140F2FF1000EA850020443430DB
:1036C00000F001F920F07046B3E72DE9F84F4FF014
:1036D000000AD0F80090064681F816A080690C46D2
:1036E00000287ED0F06A401C1AD00025A846474624
:1036F00009E07F1CB8F1000F1DD1A0F55841B1F5CC
:10370000006F18D28046D9F80C0030F81700002856
:10371000EFD1B8F1000F00D00025601980F816A095
:10372000002001462E23F269125C401C202A30D072
:10373000052A23D023E0611901F1160BC5F1FF0121
:10374000009140EA084040F2B511FFF767FEFF28FC
:1037500009D9009902290FD3020A8BF800208BF8AF
:103760000100022005E038B1009929B18BF8000072
:10377000012005440020C5E70025CAE7E522092805
:1037800004D10C2902D26518491C6B726518491CBA
:103790006A720B28C7D36018524680F809A0A07D32
:1037A00018BB19B100210B46082513E03F20A07576
:1037B000012113E02E2819D0A0F14107192F05D8B7
:1037C000F7693F7B2F4201D0203080B26718491C37
:1037D000B8755B1CE018407A0028EBD16018827540
:1037E00000E018E0F069007B10B102E01025EDE781
:1037F0006272F069C07A2072F0691C3000F063F8E0
:103800002060F069163000F069F8E080F069183047
:1038100000F064F8A080BDE8F88F000010B5044601
:103820004FF0FF3021680A0011D000BF11F8013BB2
:10383000202B0DD33A2BF9D11378303B092B06D826
:10384000921C8A4203D1012B01DA1846216010BD77
:10385000002010BD70B50C460546005DFCF7C0FCAD
:10386000064628194078FCF7BBFC66F31F10C0B26F
:1038700070BD000002480068401C00D00120704765
:103880000050000872B6044904480160486809689D
:1038900081F30888004700000050000808ED00E0B0
:1038A00070B506460D4601F11A0000F017F80446FF
:1038B0003078032805D105F1140000F00FF844EA30
:1038C0000044204670BDC178827842EA01214278E6
:1038D000007842EA012140EA0120704741780078EF
:1038E00040EA012070470000ADF5FC6DFDF7F8FDE2
:1038F000FCF7B4FEFEF78EFAFDF798FEFDF7D6FE54
:103900003220FCF70FFDAB4CA0688047AA48016845
:1039100041F0400101603220FCF704FD60688047FF
:10392000002842D00122A5A10DF5AC60FFF71AFADC
:103930004FF49674002836D1A1A3A6A28AA9E0A8C4
:10394000FFF7C1F99DF83E0290B90A229CA1684692
:10395000FFF72CFA4022A0A1D0A8FCF70BFCEDAB9E
:103960004022D0A96846FFF780FC6846FFF79CF923
:10397000A9A398A20DF589610DF2AC70FFF7A3F928
:103980009DF85E0488B14FF0000A8DF803A00DF297
:103990005E415746012223A8CDF888A0CDF8A8178C
:1039A000FFF704FA60B1214608E0FFF763FF002843
:1039B0007DD000F065FCFFF765FFFEE7642005E0C1
:1039C000FFF722F9401C03D064212046FFF73EF99F
:1039D000FCF744FD4FF4004B23AA4FF48071AFA8CD
:1039E000FFF79BF9AFA9EFA8FDF79EFC9DF8BC037C
:1039F000002879D09DF8BD0300287DD19DF8BE0335
:103A0000032801D0022802D1DDF844140F04002855
:103A10006AD19DF80300EFAB9DF8BF2307E0411A80
:103A200019440C790DEB0001401C0C71C0B29DF8DB
:103A300003108C188442F2D8DDF84404CBB2C01ACB
:103A400022908818C0B28DF803004FEAD0080026F3
:103A500034E02299384661F30F0000EBC60968464E
:103A600000EBC60001794279C37901EB022182792A
:103A7000120402EB03621144027A437A02EB03223E
:103A8000837AC07A1B0411EB0A0503EB00606449DA
:103A900010444AEB00031C46C1F810B02A464946C0
:103AA0000120FCF7A9FCD9E900104D4000E07FE0BF
:103AB00084EA00031D4369D1761CF6B24645C8D39B
:103AC0004FEAC80001466A4606E01318441A144437
:103AD0001B79401C2371C0B29DF803308342F4D897
:103AE000D8B2401A8DF803009DF8BE03012806D015
:103AF0009DF8BC02002800E048E07FF46DAF9DF81F
:103B00000300E8B3C108C9000831C9B2FF2204E0CC
:103B10000DEB0003401C1A71C0B28842F8D34FEA83
:103B2000D108002538E02299384661F30F0000EBF8
:103B3000C509684600EBC50001794279C37901EBFC
:103B400002218279120402EB03621144027A437A61
:103B500002EB0322837AC07A1B0403EB006010445B
:103B600011EB0A022E494AEB00061446C1F810B0C8
:103B7000334649460120FCF73FFCD9E9000100E04B
:103B80000CE084EA00024E40324303D0FCF726FCEE
:103B9000FFF770F86D1CEDB24545C4D3FCF71EFC71
:103BA00023A8FFF781F8DDF8A807FFF715FBFCE66F
:103BB000642103E784000020003001400000000081
:103BC000626F6F746C6F616465725F696E666F2E91
:103BD000747874002F00000050726F6A6563743A45
:103BE000205A537065637472756D0A426F6F746CFE
:103BF0006F61646572207665722E3A20302E302E09
:103C0000310A496E666F3A20746573745F626F6F34
:103C1000746C6F61646572002A2E6865780000001C
:103C2000004000582DE9104010F8013B11F8014BFD
:103C30001B1B521E01D0002BF6D0184610BD002AC7
:103C400005D011F8013B00F8013B521EF9D1704735
:103C50005FFA81F100F8011B521EFBD17047000092
:103C60002DE9FF41002790460E460F60FFF7D6FD75
:103C7000050003D50B2004B0BDE8F081884850F85A
:103C800025409CB13460207808F0FE0620B16078B1
:103C9000FEF79DFFC1070BD02770E8B2B8466070F1
:103CA000FEF76CFFC10708D00320E4E70C20E2E731
:103CB0000EB1400704D40020DDE71EB1400701D556
:103CC0000A20D8E700212046FEF780FA02281AD100
:103CD00000256E4604EB051000F5FD70FFF7F3FDBF
:103CE00046F825006D1C042DF4D3002556F8251048
:103CF00029B12046FEF76AFA022801D203E0032028
:103D00006D1C042DF2D304280AD0022874D204F1C9
:103D10003F00276BFFF7E2FDB0F5007F6CD101E0BB
:103D20000120A8E704F14A00FFF7D8FD18B904F113
:103D30005800FFF7C8FDE06194F84460A670012EBA
:103D400001D0022E58D1464394F841006081B0B3AF
:103D5000411E084250D104F14500FFF7BFFD20810C
:103D6000000749D104F14700FFF7B8FD050004D171
:103D700004F15400FFF7A7FD054604F14200FFF7E8
:103D8000ADFD010038D02389881900EB131295424C
:103D900032D3A81A6589B0FBF5F080B1DFF804C111
:103DA0000025604500D803254FF6F57C604500D816
:103DB000022540F6F57C604502D8012501E01BE0B4
:103DC000D5B1801C3A44E2623944A061C4E908716B
:103DD000032D13D083B13144A162022D1FD000F016
:103DE000010100EB400001EB500000BFE16900F26F
:103DF000FF10B1EB502F14D20D203CE704F15E0010
:103E0000FFF76CFD0028F7D120890028F4D104F1D8
:103E10006000FFF758FDA062A0698000E6E740005F
:103E2000E4E74FF0FF306061206180202071032DB6
:103E30002CD104F16400FFF751FD012826D1791C33
:103E4000204600F037F808BB84F8048004F23220E2
:103E5000FFF744FDA0F52A41553917D104F134008C
:103E6000FFF731FD1049884210D104F50670FFF7C5
:103E70002AFD0E49884209D104F50770FFF723FD9A
:103E8000606104F50870FFF71EFD2061044925708C
:103E9000091F0888401C0880E0800548E0600AE7A8
:103EA0000C000020F5FFFF0F525261417272416118
:103EB000A800002070B50446006B0D460026A842FD
:103EC0000FD0204600F0B8F906000AD1607801232F
:103ED0002A4604F13401FEF75FFE08B1751E012683
:103EE0002563304670BD2DE9FF4182B01E46144661
:103EF000054605E003A8FFF777FB00281DD0641EE8
:103F000014F0FF0FF6D1287800B9ACB903980095EA
:103F10000190009800783F2812D02A2810D06846D7
:103F2000FFF762FB804601A8FFF75EFB0746B84536
:103F30001ED1B8F1000FECD1012006B0BDE8F08130
:103F4000E6B10022009810F8011B00903F2917D01D
:103F500042F4807200783F28F4D02A28F2D0DDE9BC
:103F60000001731EFFF7BFFF0028E5D10198077815
:103F700003A8FFF739FB0CB1002FC7D10020DCE705
:103F8000521CE7E72DE9F04781460E4601F11A0081
:103F9000FFF7A4FC30BB3078012420F04000401E25
:103FA00000EB8001DFF84C8001EBC00500274FF6E5
:103FB000FF7A00BF18F807003044FFF78FFC34B1D8
:103FC000FF2D0FD829F8150004466D1C01E050455F
:103FD00008D17F1C0D2FEDD33078400608D53CB1B9
:103FE000FF2D02D90020BDE8F087002129F8151027
:103FF0000120F8E7D04200082DE9F04702261746D5
:104000000D460446022969D3A069A84266D92078E2
:104010004FF00109012804D0022836D003285DD1D1
:1040200043E0616A05EB550801EB58212046FFF794
:1040300041FF060052D1C8F308002044343008F193
:104040000108E90704D00178FAB262F31F1100E019
:104050003946017084F80390616A204601EB5821CB
:10406000FFF728FF060039D1C8F308002044343098
:10407000E90702D0C7F3071105E00178C7F303226F
:1040800001F0F0011143017026E0606A00EB152198
:104090002046FFF70FFF060020D1E8B204EB4000F6
:1040A000B9B2343000F073F816E0606A00EBD51155
:1040B0002046FFF7FFFE060010D140F2FF1000EA95
:1040C0008500204434300546FFF7FDFB67F31B00F5
:1040D0000146284600F053F884F803903046BDE8C6
:1040E000F0872DE9F041056813460E460746022980
:1040F0002DD3A869B0422AD93BB14FF0FF321946FF
:104100002846FFF779FF00281FD131463846FFF7D0
:104110007DFA040018D0012C19D0601C19D000229F
:1041200031462846FFF768FF00280ED1D5E9051073
:10413000821E914205D2491C6961297941F0010131
:1041400029712646B042E0D80020BDE8F081022067
:10415000FBE70120F9E770B50C460646154691B21B
:1041600004F11A0000F013F83078032806D1290C66
:1041700004F11400BDE8704000F009B870BD017092
:10418000090A4170090A8170090AC17070470170FB
:10419000090A41707047014600200B22430803EBD7
:1041A000C01011F8013B521E1844C0B2F6D170473E
:1041B00070B5044600F040F8050036D12078032899
:1041C0002CD12079012829D1420204F134000021A8
:1041D0000646FFF73DFD4AF6552104F23220FFF76F
:1041E000D6FF13493046FFF7CAFF124904F506709F
:1041F000FFF7C5FF04F507706169FFF7C0FF04F51D
:1042000008702169FFF7BBFF226A0123521C226359
:1042100060783146FEF7DDFC0020207100226078D6
:104220001146FEF7B4FC00B10125284670BD000020
:10423000525261417272416170B50446C0780025E6
:1042400048B104F13401607801230E46226BFEF779
:10425000C0FC10B10125284670BD0020E070216B24
:10426000606A0A1AE0698242F5D2A278022AF2D183
:104270000A18607801233146FEF7ABFCEBE700003B
:104280000548016821F0400101604FF0E02001691C
:1042900021F00101016170470030014070B50E4608
:1042A00004004FF009050CD0206850B1017841B1ED
:1042B000A188C288914204D14078FEF788FCC007EB
:1042C00003D000203060284670BD00252068F9E743
:1042D00001030507090E10121416181C1E809A45BA
:1042E000418E418F804545454949498E8F90929234
:1042F0004F994F555559999A9B9C9D9E9F41494F67
:1043000055A5A5A6A7A8A9AAABACADAEAFB0B1B252
:10431000B3B4B5B6B7B8B9BABBBCBDBEBFC0C1C2F5
:10432000C3C4C5C6C7C8C9CACBCCCDCECFD0D1D2E5
:10433000D3D4D5D6D7D8D9DADBDCDDDEDFE0E1E2D5
:10434000E3E4E5E6E7E8E9EAEBECEDEEEFF0F1F2C5
:10435000F3F4F5F6F7F8F9FAFBFCFDFEFF00C700F1
:10436000FC00E900E200E400E000E500E700EA000C
:10437000EB00E800EF00EE00EC00C400C500C9004F
:10438000E600C600F400F600F200FB00F900FF00B2
:10439000D600DC00A200A300A500A7209201E10046
:1043A000ED00F300FA00F100D100AA00BA00BF004E
:1043B0001023AC00BD00BC00A100AB00BB009125E8
:1043C000922593250225242561256225562555250C
:1043D0006325512557255D255C255B251025142572
:1043E00034252C251C2500253C255E255F255A25D6
:1043F000542569256625602550256C256725682587
:104400006425652559255825522553256B256A2590
:1044100018250C25882584258C2590258025B10319
:10442000DF009303C003A303C303B500C403A603C3
:104430009803A903B4031E22C603B50329226122EF
:10444000B1006522642220232123F7004822B00016
:104450001922B7001A227F20B200A025A000610017
:104460001A03E0001703F8000703FF0001007801BA
:104470000001300132010601390110014A012E010B
:104480007901060180014D00430281018201820110
:104490008401840186018701870189018A018B01DA
:1044A0008B018D018E018F0190019101910193018A
:1044B0009401F60196019701980198013D029B0134
:1044C0009C019D0120029F01A001A001A201A20167
:1044D000A401A401A601A701A701A901AA01AB019A
:1044E000AC01AC01AE01AF01AF01B101B201B3014A
:1044F000B301B501B501B701B801B801BA01BB01FB
:10450000BC01BC01BE01F701C001C101C201C30170
:10451000C401C501C401C701C801C701CA01CB015B
:10452000CA01CD011001DD0101008E01DE01120181
:10453000F3010300F101F401F401F8012801220262
:1045400012013A020900652C3B023B023D02662C37
:104550003F0240024102410246020A01530240006A
:1045600081018601550289018A0158028F015A0290
:1045700090015C025D025E025F02930161026202D1
:1045800094016402650266026702970196016A025D
:10459000622C6C026D026E029C01700271029D0120
:1045A000730274029F0176027702780279027A021E
:1045B0007B027C02642C7E027F02A60181028202C1
:1045C000A9018402850286028702AE014402B1017C
:1045D000B20145028D028E028F0290029102B70154
:1045E0007B030300FD03FE03FF03AC03040086030B
:1045F000880389038A03B1031103C2030200A303E2
:10460000A303C4030803CC0303008C038E038F03AE
:10461000D8031801F2030A00F903F303F403F503C6
:10462000F603F703F703F903FA03FA033004200350
:1046300050041007600422018A043601C1040E01EF
:10464000CF040100C004D004440161052604000029
:104650007D1D0100632C001E9601A01E5A01001F43
:104660000806101F0606201F0806301F0806401FF8
:104670000606511F0700591F521F5B1F541F5D1F65
:10468000561F5F1F601F0806701F0E00BA1FBB1F5A
:10469000C81FC91FCA1FCB1FDA1FDB1FF81FF91F56
:1046A000EA1FEB1FFA1FFB1F801F0806901F08065A
:1046B000A01F0806B01F0400B81FB91FB21FBC1FFF
:1046C000CC1F0100C31FD01F0206E01F0206E51F1A
:1046D0000100EC1FF31F0100FC1F4E2101003221DD
:1046E00070211002842101008321D0241A05302C6E
:1046F0002F04602C0201672C0601752C0201802C0E
:104700006401002D260841FF1A030000120000007A
:1047100024000000360000004000000006000000F9
:104720000C0000001000000000000000010000006C
:104730000200000003000000010000000300000070
:10474000050000000100000001000000060000005C
:104750000A00000020000000020000000400000029
:104760000800000010000000400000008000000071
:104770000001000000020000A0860100400D0300BF
:10478000801A060000350C0040420F0080841E0095
:1047900000093D0000127A000024F40000366E018A
:1047A0000048E801006CDC0200000000000000008E
:1047B0000000000000000000D847000804000020AE
:1047C0001C000000A4200008F4470008200000207E
:1047D000A0020100B420000800000000000000005A
:1047E00000000000010000001000000000000000B8
:0447F00000093D007F
:040000050800013DB1
:00000001FF
