:020000040800F2
:10500000000003201DD2000869CE000871CE000800
:10501000A1CE0008A7CE0008ADCE00080000000019
:10502000000000000000000000000000B3CE0008F7
:10503000C1CE000800000000CFCE0008DDCE000881
:1050400071D2000871D2000871D2000859D000084E
:1050500071D2000871D2000871D2000871D2000824
:1050600071D2000871D2000871D20008E9CE0008A0
:1050700071D2000871D2000871D2000871D2000804
:1050800071D2000871D2000871D2000871D20008F4
:1050900071D2000871D20008B9CF000809D0000809
:1050A00071D2000871D200087DD0000871D20008CA
:1050B000F5D0000871D2000871D2000871D2000842
:1050C00071D2000871D2000871D2000871D20008B4
:1050D00071D2000871D2000871D2000871D20008A4
:1050E00071D2000871D2000871D2000871D2000894
:1050F00065D0000871D000084DD0000871D20008BA
:1051000071D2000871D2000871D2000871D2000873
:1051100071D2000871D2000871D2000871D2000863
:1051200071D2000871D2000871D2000871D2000853
:0C51300071D2000871D2000871D2000892
:10513C0010B5054C237833B9044B13B10448AFF3C5
:10514C0000800123237010BDA0010020000000008E
:10515C00E04B010808B5034B1BB103490348AFF3FF
:10516C00008008BD00000000A4010020E04B0108F5
:10517C00034613F8012B002AFBD1181A013870478B
:10518C0080B582B000AF0346FB7106F045FA0346CA
:10519C0018460837BD4680BD80B584B000AF0346C5
:1051AC00FB7103F0B9FCF860FB68002B01DA0123FA
:1051BC0000E0002318461037BD4680BD80B584B092
:1051CC0000AFB9607A603B600346FB73786803F00C
:1051DC00BFFD0346002B10DA012319E0B86803F079
:1051EC00F9FD0346002B01DA012311E0BB6803F53E
:1051FC000073BB603B68013B3B603B68002BEDD10F
:10520C0003F024FE0346002B01DA012300E0002307
:10521C0018461037BD4680BD80B584B000AFB9606C
:10522C007A603B600346FB73786803F049FE0346E3
:10523C00002B10DA012319E0B86803F083FE034653
:10524C00002B01DA012311E0BB6803F50073BB608E
:10525C003B68013B3B603B68002BEDD103F0B7FE94
:10526C000346002B01DA012300E000231846103717
:10527C00BD4680BD80B483B000AF03463A60FB717D
:10528C000B46BB71BB79002B01D1002300E001233D
:10529C0018460C37BD465DF8047B704780B485B06A
:1052AC0000AF78607B6801331B78FB81FB891B02A4
:1052BC001AB27B681B781BB213431BB2FB81FB89B0
:1052CC0018461437BD465DF8047B704780B485B032
:1052DC0000AF78607B6803331B78FB60FB681B02B4
:1052EC007A68023212781343FB60FB681B027A68FF
:1052FC00013212781343FB60FB681B027A68127848
:10530C001343FB60FB6818461437BD465DF8047BFD
:10531C00704780B483B000AF78600B467B807B68AD
:10532C005A1C7A607A88D2B21A707B881B0A7B80EE
:10533C007B685A1C7A607A88D2B21A7000BF0C371C
:10534C00BD465DF8047B704780B483B000AF7860D5
:10535C0039607B685A1C7A603A68D2B21A703B6822
:10536C001B0A3B607B685A1C7A603A68D2B21A708E
:10537C003B681B0A3B607B685A1C7A603A68D2B265
:10538C001A703B681B0A3B607B685A1C7A603A684F
:10539C00D2B21A7000BF0C37BD465DF8047B704763
:1053AC0080B487B000AFF860B9607A60FB687B614D
:1053BC00BB683B617B68002B0DD03A69531C3B6189
:1053CC007B69591C796112781A707B68013B7B6090
:1053DC007B68002BF1D100BF1C37BD465DF8047B08
:1053EC00704780B487B000AFF860B9607A60FB6832
:1053FC007B617B695A1C7A61BA68D2B21A707B687D
:10540C00013B7B607B68002BF3D100BF00BF1C37D6
:10541C00BD465DF8047B704780B489B000AFF8607E
:10542C00B9607A60FB68FB61BB68BB6100237B6180
:10543C00FB695A1CFA611B781946BB695A1CBA6184
:10544C001B78CB1A7B617B68013B7B607B68002BF4
:10545C0002D07B69002BEBD07B6918462437BD4604
:10546C005DF8047B704780B483B000AF786039601E
:10547C0002E07B6801337B607B681B78002B05D0D6
:10548C007B681B781A463B689342F2D17B681B7889
:10549C0018460C37BD465DF8047B704780B483B06A
:1054AC0000AF0346FB71FB79002B01D0002300E019
:1054BC00002318460C37BD465DF8047B704780B45A
:1054CC0083B000AF0346FB71FB79002B01D00023A6
:1054DC0000E0002318460C37BD465DF8047B70478E
:1054EC0080B586B000AF78607B681B687B617B6998
:1054FC005A1C7A611B787B827B8ADBB21846FFF7D9
:10550C00CDFF0346002B15D07B695A1C7A611B78A2
:10551C007B747B7C1846FFF7D2FF0346002B02D12D
:10552C004FF0FF331DE07B8A1B029AB27B7C9BB24F
:10553C0013447B827B8A002B0DD07B8A40F2B51101
:10554C00184603F081F903467B827B8A002B02D13B
:10555C004FF0FF3305E07B8AFB607B687A691A6049
:10556C00FB6818461837BD4680BD80B586B000AFC5
:10557C00F860B9607A6040F2B511F86803F02AF966
:10558C000346FB82FB8AFF2B14D97B68012B01D8C5
:10559C0000231EE0FB8A1B0A99B2BB685A1CBA6036
:1055AC00CAB21A70BB685A1CBA60FA8AD2B21A70A4
:1055BC0002230EE0FB8A002B02D07B68002B01D16A
:1055CC00002306E0BB685A1CBA60FA8AD2B21A7081
:1055DC00012318461837BD4680BD80B584B000AF96
:1055EC0078600023FB737B68DB78002B2CD07B6806
:1055FC0058787B6803F134017B681A6B0123FFF741
:10560C000BFE0346002B1DD17B680022DA707B68F1
:10561C001A6B7B685B6AD21A7B68DB699A4213D27D
:10562C007B689B78022B0FD17B6858787B6803F1E1
:10563C0034017B681A6B7B68DB691A440123FFF722
:10564C00EBFD01E00123FB73FB7B18461037BD46D5
:10565C0080BD80B584B000AF786039600023FB73E7
:10566C007B681B6B3A689A421BD07868FFF7B5FFD2
:10567C000346FB73FB7B002B13D17B6858787B684C
:10568C0003F1340101233A68FFF798FD0346002B20
:10569C0004D04FF0FF333B600123FB737B683A6807
:1056AC001A63FB7B18461037BD4680BD80B584B0AD
:1056BC0000AF78607868FFF790FF0346FB73FB7BC5
:1056CC00002B58D17B681B78032B48D17B681B7946
:1056DC00012B44D17B6834334FF4007200211846FF
:1056EC00FFF77FFE7B68343303F5FF734AF65521D1
:1056FC001846FFF70EFE7B68343321491846FFF736
:10570C0023FE7B68343303F5F2731E491846FFF70A
:10571C001BFE7B68343303F5F4727B685B691946B6
:10572C001046FFF711FE7B68343303F5F6727B6885
:10573C001B6919461046FFF707FE7B681B6A5A1C4B
:10574C007B681A637B6858787B6803F134017B684B
:10575C001A6B0123FFF760FD7B6800221A717B68CE
:10576C005B78002200211846FFF784FD0346002BCE
:10577C0001D00123FB73FB7B18461037BD4680BD5F
:10578C00525261417272416180B483B000AF786053
:10579C0039603B68023B3B607B689B69023B3A6823
:1057AC009A4201D3002308E07B68DA6A7B685B8944
:1057BC0019463B6803FB01F3134418460C37BD46EE
:1057CC005DF8047B704780B586B000AF78603960B7
:1057DC007B681B683B613B68012B04D93B699B6967
:1057EC003A689A4202D301237B618FE04FF0FF337A
:1057FC007B613B691B78032B62D0032B7CDC012B78
:10580C0002D0022B42D077E03B68FB60FB685B0860
:10581C00FA681344FB603B695A6AFB685B0A1344E1
:10582C0019463869FFF715FF0346002B67D1FB6853
:10583C005A1CFA60C3F308033A69134493F83430E2
:10584C00BB603B695A6AFB685B0A134419463869AA
:10585C00FFF7FFFE0346002B53D1FB68C3F308038D
:10586C003A69134493F834301B021A46BB6813434D
:10587C00BB603B6803F00103002B02D0BB681B0923
:10588C0002E0BB68C3F30B037B613FE03B695A6AE0
:10589C003B681B0A134419463869FFF7DAFE0346C6
:1058AC00002B30D13B6903F134023B685B0003F4FD
:1058BC00FF7313441846FFF7F1FC03467B6125E0A8
:1058CC003B695A6A3B68DB09134419463869FFF790
:1058DC00C0FE0346002B18D13B6903F134023B6830
:1058EC009B0003F4FE7313441846FFF7EFFC0346CA
:1058FC0023F070437B6109E001237B6106E000BF6C
:10590C0004E000BF02E000BF00E000BF7B69184666
:10591C001837BD4680BD90B589B000AFF860B9604E
:10592C007A600223FB77BB68012B40F2D280FB68C4
:10593C009B69BA689A4280F0CC80FB681B78032B79
:10594C0000F09680032B00F3CD80012B02D0022BAC
:10595C006ED0C7E0BB68BB61BB695B08BA69134416
:10596C00BB61FB685A6ABB695B0A13441946F86849
:10597C00FFF76FFE0346FB77FB7F002B40F0AB80FD
:10598C00FB6803F13402BB69591CB961C3F308030A
:10599C0013447B61BB6803F00103002B0DD07B69C2
:1059AC001B785BB203F00F035AB27B68DBB21B01AE
:1059BC005BB213435BB2DBB201E07B68DBB27A69AA
:1059CC001370FB680122DA70FB685A6ABB695B0AC8
:1059DC0013441946F868FFF73CFE0346FB77FB7F40
:1059EC00002B7AD1FB6803F13402BB69C3F30803C3
:1059FC0013447B61BB6803F00103002B03D07B686D
:105A0C001B09DBB20EE07B691B785BB223F00F0342
:105A1C005AB27B681B0A5BB203F00F035BB21343F1
:105A2C005BB2DBB27A691370FB680122DA7059E061
:105A3C00FB685A6ABB681B0A13441946F868FFF7DF
:105A4C0008FE0346FB77FB7F002B48D1FB6803F174
:105A5C003402BB685B0003F4FF7313447A6892B2A0
:105A6C0011461846FFF755FCFB680122DA7039E045
:105A7C00FB685A6ABB68DB0913441946F868FFF7E0
:105A8C00E8FD0346FB77FB7F002B2AD17B6823F0D4
:105A9C007044FB6803F13402BB689B0003F4FE7393
:105AAC0013441846FFF712FC034603F070432343DC
:105ABC007B60FB6803F13402BB689B0003F4FE734C
:105ACC00134479681846FFF73FFCFB680122DA7033
:105ADC0008E000BF06E000BF04E000BF02E000BF2A
:105AEC0000E000BFFB7F18462437BD4690BD80B553
:105AFC0088B000AFF860B9607A600023FB77FB6870
:105B0C001B68BB61BB68012B04D9BB699B69BA6874
:105B1C009A4201D302234BE07B68002B0CD04FF050
:105B2C00FF327968B869FFF7F6FE0346FB77FB7F17
:105B3C00002B01D0FB7F3BE0B968F868FFF743FE10
:105B4C0078617B69002B31D07B69012B01D1022359
:105B5C002EE07B69B3F1FF3F01D1012328E0002245
:105B6C00B968B869FFF7D7FE0346FB77FB7F002BBC
:105B7C0001D0FB7F1CE0BB695A69BB699B69023B86
:105B8C009A420BD2BB695B695A1CBB695A61BB69EF
:105B9C001B7943F00103DAB2BB691A717B69BB60F4
:105BAC00BB699B69BA689A42C6D300E000BF002368
:105BBC0018462037BD4680BD80B588B000AF7860F0
:105BCC0039607B681B683B613B68002B0DD13B69DE
:105BDC001B69BB61BB69002B04D03B699B69BA692B
:105BEC009A421BD30123BB6118E039687868FFF730
:105BFC00EAFDF860FB68012B01D80123A9E0FB68E2
:105C0C00B3F1FF3F01D1FB68A3E03B699B69FA68E4
:105C1C009A4201D2FB689CE03B68BB613B695B69C3
:105C2C00002B01D1002394E00023FB61BA693B688F
:105C3C009A4229D1BB690133FB613B699B69FA69C3
:105C4C009A4201D30223FB61F9697868FFF7BBFD27
:105C5C00F860FB68012B03D0FB68B3F1FF3F01D167
:105C6C00FB6876E0FB68002B0ED03B691B69FB6080
:105C7C00FB68012B06D93B699B69FA689A4201D2F1
:105C8C00FB68BB610023FB61FB69002B29D1BB695D
:105C9C00FB61FB690133FB613B699B69FA699A42C1
:105CAC0007D30223FB61FA69BB699A4201D900232D
:105CBC004FE0F9697868FFF786FDF860FB68002B08
:105CCC000ED0FB68012B03D0FB68B3F1FF3F01D171
:105CDC00FB683EE0FA69BB699A42DAD1002338E0EE
:105CEC0000BF4FF0FF32F9693869FFF714FE034625
:105CFC00FB75FB7D002B09D13B68002B06D0FA69A4
:105D0C0039683869FFF707FE0346FB75FB7D002BEE
:105D1C0016D13B69FA691A613B695A693B699B69FF
:105D2C00023B9A4204D83B695B695A1E3B695A6133
:105D3C003B691B7943F00103DAB23B691A7107E046
:105D4C00FB7D012B02D14FF0FF3300E00123FB61FF
:105D5C00FB6918462037BD4680BD80B586B000AFC4
:105D6C00786039607868FFF738FC0346002B01D067
:105D7C00012336E039687868FFF706FD38617B68E7
:105D8C003A691A637B6834334FF400720021184669
:105D9C00FFF727FB7B683433FB600123BB600023D8
:105DAC007B6103E07A69BB6813447B617B685B8928
:105DBC001A467B6993420BD27B6858783A697B69A7
:105DCC001A44BB68F968FFF727FA0346002BE9D0A1
:105DDC007B685B891A467B69934214BF01230023BD
:105DEC00DBB218461837BD4680BD80B586B000AF13
:105DFC00786039607B681B683B613B68B3F5001FBA
:105E0C0004D23B6803F01F03002B01D0022363E094
:105E1C007B683A681A617B689B687B617B69002BA5
:105E2C0006D13B691B78022B02D93B699B6A7B61CB
:105E3C007B69002B0CD13B685B093A691289934250
:105E4C0001D3022348E03B699A6A7B689A6129E096
:105E5C003B695B895B02FB6019E07B6879691846DA
:105E6C00FFF7B1FC78617B69B3F1FF3F01D10123EE
:105E7C0032E07B69012B04D93B699B697A699A42B0
:105E8C0001D3022328E03A68FB68D31A3B603A68D6
:105E9C00FB689A42E1D279693869FFF775FC0246D2
:105EAC007B689A617B687A695A617B689B69002B75
:105EBC0001D1022310E07B689A693B685B0A1A44A3
:105ECC007B689A613B6903F134023B68C3F30803B6
:105EDC001A447B68DA61002318461837BD4680BD2A
:105EEC0080B586B000AF786039607B681B683B6119
:105EFC007B681B692033FB60FB68B3F5001F02D382
:105F0C007B6800229A617B689B69002B01D104237A
:105F1C0078E0FB68C3F30803002B66D17B689B69B0
:105F2C005A1C7B689A617B685B69002B0AD1FB6801
:105F3C005B093A691289934257D37B6800229A61B4
:105F4C0004235FE0FB685B0A3A695289013A13400B
:105F5C00002B4AD17A687B685B6919461046FFF7BB
:105F6C0032FC78617B69012B01D802234AE07B6902
:105F7C00B3F1FF3F01D1012344E03B699B697A698E
:105F8C009A4228D33B68002B04D17B6800229A618B
:105F9C00042337E07A687B685B6919461046FFF783
:105FAC000BFE78617B69002B01D107232AE07B690A
:105FBC00012B01D1022325E07B69B3F1FF3F01D115
:105FCC0001231FE079693869FFF7C7FE0346002BF0
:105FDC0001D0012316E07B687A695A6179693869C6
:105FEC00FFF7D2FB02467B689A617B68FA681A61FC
:105FFC003B6903F13402FB68C3F308031A447B6862
:10600C00DA61002318461837BD4680BD80B586B0CE
:10601C0000AF786039607B681B68FB600021786892
:10602C00FFF7E3FE0346FB75FB7D002B2BD1002312
:10603C003B617B689B691946F868FFF70AFB0346CE
:10604C00FB75FB7D002B1DD17B68DB691B78E52B79
:10605C0004D07B68DB691B78002B07D13B690133CB
:10606C003B613A693B689A4202D10CE000233B61E8
:10607C0001217868FFF734FF0346FB75FB7D002B8D
:10608C00D7D000E000BFFB7D042B01D10723FB75AB
:10609C00FB7D18461837BD4680BD80B584B000AF77
:1060AC00786039603B681A331846FFF7F7F80346F7
:1060BC00FB607B681B78032B09D13B6814331846B3
:1060CC00FFF7ECF803461B04FA681343FB60FB680C
:1060DC0018461037BD4680BD80B584B000AFF8605F
:1060EC00B9607A60BB681A337A6892B21146184666
:1060FC00FFF70FF9FB681B78032B09D1BB6803F181
:10610C0014027B681B0C9BB219461046FFF701F971
:10611C0000BF1037BD4680BD90B587B000AF78602A
:10612C0039603B681A331846FFF7B8F80346002B62
:10613C0001D0002358E03B681B7803F03F035A1E44
:10614C0013465B0013449B0013447B610123FB81CA
:10615C0000233B6132E0264A3B6913441B781A4604
:10616C003B6813441846FFF799F80346BB81FB893B
:10617C00002B19D07B69FF2B11D8BB89184602F074
:10618C008FFB04467B695A1C7A615B007A68134466
:10619C001B88184602F084FB03469C4201D0002366
:1061AC0022E0BB89FB8106E0BB894FF6FF7293426C
:1061BC0001D0002318E03B6901333B613B690C2B98
:1061CC00C9D93B681B7803F04003002B0BD0FB892B
:1061DC00002B08D07B695B007A6813441B88002B6A
:1061EC0001D0002300E0012318461C37BD4690BDAA
:1061FC00B84D010880B586B000AF786039603B6857
:10620C001A331846FFF74AF80346002B01D0002337
:10621C0050E03B681B7823F040035A1E13465B008A
:10622C0013449B0013447B610123FB8100233B61DE
:10623C0028E0224A3B6913441B781A463B681344F6
:10624C001846FFF72BF80346BB81FB89002B0FD0B8
:10625C007B69FF2B01D900232CE0BB89FB817B6977
:10626C005A1C7A615B007A681344FA891A8006E03A
:10627C00BB894FF6FF72934201D000231AE03B69B1
:10628C0001333B613B690C2BD3D93B681B7803F082
:10629C004003002B0DD0FB89002B0AD07B69FF2B10
:1062AC0001D9002306E07B695B007A681344002265
:1062BC001A80012318461837BD4680BDB84D010819
:1062CC0080B588B000AFF860B96011461A460B462D
:1062DC00FB711346BB71BB680D33BA791A70BB687E
:1062EC000B330F221A70BB680C3300221A70BB6878
:1062FC001A3300211846FFF70CF8FB795A1E134687
:10630C005B0013449B001344FB610023FB820023BE
:10631C00BB61FB8A4FF6FF72934207D0FB695A1C94
:10632C00FA615B00FA6813441B88FB82174ABB694D
:10633C0013441B781A46BB681344FA8A1146184654
:10634C00FEF7E7FFFB8A002B02D14FF6FF73FB82AF
:10635C00BB690133BB61BB690C2BDAD9FB8A4FF6E5
:10636C00FF72934206D0FB695B00FA6813441B88EA
:10637C00002B03D1FB7943F04003FB71BB68FA7926
:10638C001A7000BF2037BD4680BD00BFB84D010854
:10639C0080B58CB000AFF860B9607A603B600B22BE
:1063AC00B968F868FEF7FCFF3B68052B2BD93B68F6
:1063BC00FB6122E07B689A1C7A601B887B8400233B
:1063CC00BB6217E0FB695A007B8C03F0010313449A
:1063DC00FB617B8C5B087B84FB6903F48033002BB3
:1063EC0005D0FB6983F4883383F02103FB61BB6A1E
:1063FC000133BB62BB6A0F2BE4D97B681B88002B73
:10640C00D8D1FB693B600723BB623B68DBB203F06E
:10641C000F03DBB2303387F82F3097F82F30392B3E
:10642C0004D997F82F30073387F82F30BB6A5A1EE0
:10643C00BA6207F13002134497F82F2003F81C2C92
:10644C003B681B093B603B68002BDED107F1140253
:10645C00BB6A13447E221A7000237B6214E0FA6834
:10646C007B6A13441B781846FFF718F80346002B79
:10647C0007D0BB6A013B7A6A9A4210D07B6A01331F
:10648C007B627B6A01337B627A6ABB6A9A4207D26F
:10649C00FA687B6A13441B78202BE0D100E000BF24
:1064AC00BB6A072B08D8BB6A5A1CBA6207F13002C8
:1064BC00134413F81C1C00E020217B6A5A1C7A62DE
:1064CC00FA6813440A461A707B6A072BE8D900BF96
:1064DC0000BF3037BD4680BD80B485B000AF78605A
:1064EC000023FB730B23BB60FB7BDAB25208DB018E
:1064FC001343DAB27B68591C79601B781344FB7325
:10650C00BB68013BBB60BB68002BEDD1FB7B184625
:10651C001437BD465DF8047B704780B586B000AF7C
:10652C00786039600423FB757B681B683B61FF2333
:10653C007B75FF233B7581E07B689B691946386945
:10654C00FFF787F80346FB75FB7D002B7CD17B683E
:10655C00DB691B78BB75BB7D002B02D10423FB755B
:10656C0077E07B68DB690B331B7803F03F03FB732D
:10657C007B68FA7B9A71BB7DE52B0ED0BB7D2E2BF5
:10658C000BD0FB7B23F02003082B0CBF0123002333
:10659C00DBB21A463B68934202D0FF237B7544E082
:1065AC00FB7B0F2B2FD1BB7D03F04003002B0DD0B9
:1065BC007B68DB695B7B3B75BB7D23F04003BB7564
:1065CC00BB7D7B757B681A697B68DA62BA7D7B7DE3
:1065DC009A4215D17B68DB690D331B783A7D9A4260
:1065EC000ED13B69DA687B68DB6919461046FFF708
:1065FC0001FE0346002B03D07B7D013BDBB200E0A8
:10660C00FF237B7511E07B7D002B09D17B68DB6957
:10661C001846FFF761FF03461A463B7D934215D09F
:10662C007B684FF0FF32DA6210E000217868FFF7E8
:10663C0057FC0346FB75FB7D002B09D17B689B69DE
:10664C00002B7FF479AF04E000BF02E000BF00E054
:10665C0000BFFB7D002B02D07B6800229A61FB7D82
:10666C0018461837BD4680BD80B586B000AF78603F
:10667C007B681B683B6100217868FFF7B6FB03461B
:10668C00FB75FB7D002B01D0FB7DA9E0FF233B7547
:10669C003B7D7B757B684FF0FF32DA627B689B69D0
:1066AC0019463869FEF7D5FF0346FB75FB7D002BB9
:1066BC0040F090807B68DB691B78BB75BB7D002B41
:1066CC0002D10423FB758AE07B68DB690B331B78F2
:1066DC0003F03F03FB737B68FA7B9A71BB7DE52B60
:1066EC0007D0FB7B03F00803002B09D0FB7B0F2B9F
:1066FC0006D0FF237B757B684FF0FF32DA625EE0D9
:10670C00FB7B0F2B36D17B6893F82B3003F04003C7
:10671C00002B54D1BB7D03F04003002B0DD07B68C4
:10672C00DB695B7B3B75BB7D23F04003BB75BB7D9D
:10673C007B757B681A697B68DA62BA7D7B7D9A42CD
:10674C0015D17B68DB690D331B783A7D9A420ED1EB
:10675C003B69DA687B68DB6919461046FFF7DCFC9D
:10676C000346002B03D07B7D013BDBB200E0FF2313
:10677C007B7524E07B7D002B09D17B68DB69184697
:10678C00FFF7AAFE03461A463B7D934224D07B6852
:10679C0093F82B3003F00103002B0AD17B68D869E6
:1067AC007B6820330B221946FEF736FE0346002B7E
:1067BC0014D0FF237B757B684FF0FF32DA62002127
:1067CC007868FFF78DFB0346FB75FB7D002B3FF4D0
:1067DC0065AF04E000BF02E000BF00E000BFFB7D3E
:1067EC0018461837BD4680BD80B58CB000AF7860B8
:1067FC007B681B68FB617B6893F82B3003F0A0036C
:10680C00002B01D00623E0E000237B6202E07B6AD0
:10681C0001337B62FB69DA687B6A5B0013441B887B
:10682C00002BF4D17B6803F1200107F10C030C223F
:10683C001846FEF7B5FDFB7D03F00103002B32D0AB
:10684C007B68402283F82B200123BB6216E07B6817
:10685C0003F12000FB69DA6807F10C01BB6AFFF752
:10686C0097FD7868FFF700FF034687F82F3097F8FD
:10687C002F30002B06D1BB6A0133BB62BB6A632B82
:10688C00E5D900E000BFBB6A642B01D107239CE073
:10689C0097F82F30042B02D097F82F3095E0FA7D23
:1068AC007B6883F82B20FB7D03F00203002B07D0C1
:1068BC007B6A0C33474AA2FB03239B08013300E09D
:1068CC0001233B62396A7868FFF7A0FB034687F81F
:1068DC002F3097F82F30002B48D13B6A013B3B629D
:1068EC003B6A002B42D07B681A693B6A5B01D31A66
:1068FC0019467868FFF779FA034687F82F3097F82E
:10690C002F30002B32D17B6820331846FFF7E4FD83
:10691C000346FB767B689B691946F869FEF799FE7E
:10692C00034687F82F3097F82F30002B1DD1FB69C9
:10693C00D8687B68D9693B6ADAB2FB7EFFF7C0FC8A
:10694C00FB690122DA7000217868FFF7C9FA034667
:10695C0087F82F3097F82F30002B07D13B6A013B7B
:10696C003B623B6A002BD5D100E000BF97F82F307B
:10697C00002B28D17B689B691946F869FEF769FEE4
:10698C00034687F82F3097F82F30002B1BD17B68EC
:10699C00DB69202200211846FEF723FD7B68D869AD
:1069AC007B6820330B221946FEF7FAFC7B6893F8C0
:1069BC002B207B68DB690C3302F01802D2B21A7000
:1069CC00FB690122DA7097F82F3018463037BD4634
:1069DC0080BD00BF4FECC44E80B588B000AF78606E
:1069EC0039607B681B68FB603B6800229A757B688A
:1069FC009B69002B00F003817B68DB6AB3F1FF3FDE
:106A0C004ED000237B820023BB61BB69FB6134E069
:106A1C00FB68DA68FB69591CF9615B0013441B883D
:106A2C00BB827B8A002B0AD1BB8AB3F5584F06D3A5
:106A3C00BB8AB3F5604F02D2BB8A7B821DE07B8A96
:106A4C001A04BB8A42EA0300BB6910333A68134448
:106A5C00991DBB69C3F1FF031A46FEF786FD034679
:106A6C00BB82BB8A002B02D10023BB610DE0BB8A29
:106A7C00BA691344BB6100237B82FB68DA68FB694B
:106A8C005B0013441B88002BC2D17B8A002B01D0E6
:106A9C000023BB613A68BB691344163300221A7099
:106AAC000023BB61BB69FB6126E07B68DA69FB698B
:106ABC00591CF96113441B78BB82BB8A202B00D173
:106ACC001AE0BB8A052B01D1E523BB82FB69092B9C
:106ADC0009D1BB690B2B06D8BB695A1CBA613A6841
:106AEC0013442E225A72BB695A1CBA61BA8AD1B2AB
:106AFC003A6813440A465A72FB690A2BD5D93A688C
:106B0C00BB691344093300221A703B689B7D002B30
:106B1C0052D1BB69002B07D1BB695A1CBA613A68C8
:106B2C0013443F229A7538E00023BB61BB69FB61BB
:106B3C000823FB752AE03A68FB69134409331B7878
:106B4C00BB82BB8A2E2B01D11023FB75BB8A402B39
:106B5C000ED9BB8A5A2B0BD87B68DB690C331A789D
:106B6C00FB7D1340DBB2002B02D0BB8A2033BB82EF
:106B7C00BB8AD9B23A68BB69134416330A461A70F9
:106B8C00FB690133FB61BB690133BB613A68FB698B
:106B9C00134409331B78002BCDD13A68BB691344DD
:106BAC00163300221A707B68DB690C331B78002BC0
:106BBC0002D13B6800225A727B68DB69DA7A3B6847
:106BCC001A727B68DB691C331846FEF77FFB0246A2
:106BDC003B681A607B68DB6916331846FEF75EFB70
:106BEC0003461A463B68DA807B68DB691833184623
:106BFC00FEF754FB03461A463B689A8000E000BF40
:106C0C002037BD4680BD000080B485B000AF7860F1
:106C1C007B681B68591C7A6811601B78FB60FB68E9
:106C2C00602B05D9FB687A2B02D8FB68203BFB60F4
:106C3C00FB687F2B04D9FB68803B054AD35CFB6067
:106C4C00FB6818461437BD465DF8047B704700BFDF
:106C5C00C84D010880B58AB000AFF860B9607A60A1
:106C6C003B600CE007F108031846FFF7CDFF034625
:106C7C00002B01D100236AE07B68013B7B607B68C1
:106C8C00DBB2002BEED1FB681B78002B04D17B68A8
:106C9C00002B01D001235AE0FB68BB61BB687B6110
:106CAC00BB691B783F2B03D0BB691B782A2B2CD1DB
:106CBC003B68002B01D1002349E000233B62BB69F8
:106CCC005A1CBA611B783F2B03D13B6A01333B62E0
:106CDC0003E03B6A43F480733B62BB691B783F2B38
:106CEC00EDD0BB691B782A2BE9D0B86979693B6870
:106CFC00013B3A6AFFF7AEFF0346002B01D001239C
:106D0C0025E07B691B787B6215E007F118031846B8
:106D1C00FFF77AFFF86107F114031846FFF774FFC9
:106D2C007862FA697B6A9A4204D1FB69002BB7D16D
:106D3C0001230CE000BF07F108031846FFF764FFBE
:106D4C007B68002B02D07B6A002BA5D10023184650
:106D5C002837BD4680BD000080B58AB000AF786092
:106D6C0039603B681B68BB607B681B68DB683B61F8
:106D7C0000237B6107F108031846FEF7B1FBF860AE
:106D8C00FB68B3F1FF3F01D10623B9E1FB68B3F512
:106D9C00803F09D3FB68190C7B695A1C7A615B0034
:106DAC003A6913448AB21A80FB68BB84BB8C1F2BD4
:106DBC0020D9BB8C2F2B1DD0BB8C5C2B1AD0BB8C41
:106DCC007F2B09D8BB8C1946A648FEF74CFB034613
:106DDC00002B01D0062393E17B69FE2B01D90623FE
:106DEC008EE17B695A1C7A615B003A691344BA8C58
:106DFC001A80BFE7BB8C1F2B03D8042387F82630DF
:106E0C000EE0002387F8263002E0BB680133BB603C
:106E1C00BB681B782F2BF8D0BB681B785C2BF4D08D
:106E2C00BA683B681A6011E07B6903F10043013BCF
:106E3C005B003A6913441B88BB84BB8C202B02D0AB
:106E4C00BB8C2E2B06D17B69013B7B617B69002BB4
:106E5C00EAD100E000BF7B695B003A691344002271
:106E6C001A807B69002B01D1062349E10023BB6109
:106E7C0002E0BB690133BB61BB695B003A69134437
:106E8C001B88202BF5D0BB69002B06D1BB695B009E
:106E9C003A6913441B882E2B09D197F8263043F0FE
:106EAC00030387F8263002E07B69013B7B617B6939
:106EBC00002B09D07B6903F10043013B5B003A696D
:106ECC0013441B882E2BEFD17B6820330B222021FF
:106EDC001846FEF786FA002387F8273000233B621A
:106EEC000823FB61BB695A1CBA615B003A69134405
:106EFC001B88BB84BB8C002B00F0B280BB8C202B7E
:106F0C0006D0BB8C2E2B0AD1BA697B699A4206D06B
:106F1C0097F8263043F0030387F826309FE03A6A4F
:106F2C00FB699A4203D2BA697B699A4224D1FB6904
:106F3C000B2B06D197F8263043F0030387F8263045
:106F4C0097E0BA697B699A4205D097F8263043F0EE
:106F5C00030387F82630BA697B699A4200F288806D
:106F6C007B69BB6108233B620B23FB6197F82730DD
:106F7C009B0087F8273072E0BB8C7F2B18D997F8D1
:106F8C00263043F0020387F82630BB8C40F2B51153
:106F9C00184601F01FFC0346BB84BB8C03F0800336
:106FAC00002B05D0BB8C03F07F032F4AD35CBB8432
:106FBC00BB8CFF2B1AD9FB69013B3A6A9A4208D366
:106FCC0097F8263043F0030387F82630FB693B62C1
:106FDC0045E0BB8C1B0A99B23B6A5A1C3A62C9B297
:106FEC007A6813440A4683F820202EE0BB8C002BD1
:106FFC0007D0BB8C19461D48FEF735FA0346002B0B
:10700C0008D05F23BB8497F8263043F0030387F83E
:10701C0026301AE0BB8C402B08D9BB8C5A2B05D8D8
:10702C0097F8273043F0020387F82730BB8C602B8E
:10703C000BD9BB8C7A2B08D897F8273043F0010377
:10704C0087F82730BB8C203BBB843B6A5A1C3A62C6
:10705C00BA8CD1B27A6813440A4683F8202041E7EF
:10706C0000BF06E0F84B0108C84D0108044C0108AC
:10707C0000BF7B6893F82030E52B03D17B68052299
:10708C0083F82020FB69082B04D197F827309B004C
:10709C0087F8273097F8273003F00C030C2B05D01A
:1070AC0097F8273003F00303032B05D197F826300C
:1070BC0043F0020387F8263097F8263003F00203DA
:1070CC00002B17D197F8273003F00103002B05D0C4
:1070DC0097F8263043F0100387F8263097F82730BE
:1070EC0003F00403002B05D097F8263043F0080377
:1070FC0087F826307B6897F8262083F82B2000230E
:10710C0018462837BD4680BD80B586B000AF786084
:10711C0039607B681B683B6102E03B6801333B6074
:10712C003B681B782F2BF8D03B681B785C2BF4D07A
:10713C007B6800229A603B681B781F2B0AD87B68FF
:10714C00802283F82B2000217868FEF74EFE034640
:10715C00FB7543E03B4619467868FFF7FDFD034697
:10716C00FB75FB7D002B34D17868FFF77DFA034665
:10717C00FB757B6893F82B30FB73FB7D002B0AD0DF
:10718C00FB7D042B27D1FB7B03F00403002B22D1C6
:10719C000523FB751FE0FB7B03F00403002B1CD1C4
:1071AC007B689B7903F01003002B02D10523FB7540
:1071BC0014E03B6903F134027B681B69C3F30803D9
:1071CC00134419463869FEF768FF02467B689A60DB
:1071DC00C0E700BF02E000BF00E000BFFB7D184627
:1071EC001837BD4680BD80B489B000AF78604FF0D1
:1071FC00FF337B617B681B683B613B69FB613B69CF
:10720C00002B01D17B692DE0FB695A1CFA611B78BC
:10721C00FB73FB7B1F2B02D9FB7B3A2BF4D1FB7B43
:10722C003A2B1CD10123BB613B691B782F2B0CD94A
:10723C003B691B78392B08D83B690233FA699A42AF
:10724C0003D13B691B78303BBB61BB69002B04DC71
:10725C00BB697B617B68FA691A607B6902E0002379
:10726C007B617B6918462437BD465DF8047B70470B
:10727C0080B584B000AF786039607B680022DA702A
:10728C007B684FF0FF321A6339687868FEF7E1F9D2
:10729C000346002B01D0042370E07B68343303F5E4
:1072AC00FF731846FDF7FAFF0346FB817B6893F8E2
:1072BC0034307B737B7BEB2B05D07B7BE92B02D0B3
:1072CC007B7BE82B52D1FB894AF6552293420CD199
:1072DC007B683433523308222A491846FEF79CF84F
:1072EC000346002B01D1002348E07B6834330B3379
:1072FC001846FDF7D3FF03467B817A897B89013BD6
:10730C001340002B32D17B89B3F5007F2ED37B89C0
:10731C00B3F5007F2AD87B6893F841307B737B7B75
:10732C00002B23D07A7B7B7B013B1340002B1DD1A0
:10733C007B6893F84430012B04D07B6893F844307D
:10734C00022B13D17B68343311331846FDF7A6FF9B
:10735C000346002B0AD07B68343316331846FDF7EE
:10736C009DFF0346002B01D0002307E0FB894AF662
:10737C005522934201D1022300E003231846103713
:10738C00BD4680BD0C4C010880B588B000AF78605C
:10739C00396000217868FFF76BFFB861BB69022B7D
:1073AC0007D0BB69022B02D83B68002B01D1BB690B
:1073BC0048E00023FB6115E07B6803F13402FB69B4
:1073CC001B0103F5E37313441846FDF77FFF0246D8
:1073DC00FB699B0007F120010B4443F8182CFB6957
:1073EC000133FB61FB69032BE6D93B68002B02D010
:1073FC003B68013B00E00023FB61FB699B0007F14C
:10740C002002134453F8183C002B0CD0FB699B0052
:10741C0007F12002134453F8183C19467868FFF71B
:10742C0027FF034600E00323BB613B68002B08D118
:10743C00BB69012B05D9FB690133FB61FB69032B8C
:10744C00DBD9BB6918462037BD4680BD80B590B0EE
:10745C0000AFF860B9601346FB71BB6800221A607C
:10746C00F868FFF7C0FEF862FB6A002B01DA0B2309
:10747C00E3E1A94AFB6A52F82330BB62BB6A002BDA
:10748C0001D10C23D9E1BB68BA6A1A60FB7923F0ED
:10749C000103FB71BB6A1B78002B1AD0BB6A5B78AB
:1074AC001846FDF76DFE034687F8273097F827300E
:1074BC0003F00103002B0CD1FB79002B07D097F8BC
:1074CC00273003F00403002B01D00A23B5E100237D
:1074DC00B3E1BB6A00221A70FB6ADAB2BB6A5A705B
:1074EC00BB6A5B781846FDF757FE034687F82730D2
:1074FC0097F8273003F00103002B01D003239CE104
:10750C00FB79002B07D097F8273003F00403002BEE
:10751C0001D00A2391E10021B86AFFF735FF3863E7
:10752C003B6B042B01D1012387E13B6B012B01D970
:10753C000D2382E1BB6A1B6B3B62BB6A34330B339A
:10754C001846FDF7ABFE0346B3F5007F01D00D23C3
:10755C0073E1BB6A343316331846FDF79FFE0346BE
:10756C00BB63BB6B002B06D1BB6A34332433184688
:10757C00FDF7ACFEB863BB6ABA6BDA61BB6A93F811
:10758C004420BB6A9A70BB6A9B78012B05D0BB6AFE
:10759C009B78022B01D00D234FE1BB6A9B781A46D6
:1075AC00BB6B02FB03F3BB63BB6A93F841309AB22B
:1075BC00BB6A5A81BB6A5B89002B08D0BB6A5B89AA
:1075CC001A46BB6A5B89013B1340002B01D00D238B
:1075DC0033E1BB6A343311331846FDF75FFE0346C3
:1075EC001A46BB6A1A81BB6A1B8903F00F039BB254
:1075FC00002B01D00D2320E1BB6A34331333184622
:10760C00FDF74CFE0346FB63FB6B002B06D1BB6AFC
:10761C00343320331846FDF759FEF863BB6A343314
:10762C000E331846FDF73AFE0346FB83FB8B002B0B
:10763C0001D10D2301E1FA8BBB6B1344BA6A128999
:10764C00120992B21344BB61FA6BBB699A4201D224
:10765C000D23F2E0FA6BBB69D31ABA6A5289B3FBF9
:10766C00F2F37B617B69002B01D10D23E5E0002354
:10767C003B637B69294A934201D803233B637B69B3
:10768C004FF6F572934201D802233B637B6940F6B7
:10769C00F572934201D801233B633B6B002B01D164
:1076AC000D23CAE07B699A1CBB6A9A61BB6A3A6A71
:1076BC001A62FA8B3B6A1A44BB6A5A623A6ABB6911
:1076CC001A44BB6ADA623B6B032B1ED1BB6A3433A0
:1076DC002A331846FDF7E2FD0346002B01D00D239B
:1076EC00ABE0BB6A1B89002B01D00D23A5E0BB6A64
:1076FC0034332C331846FDF7E9FD0246BB6A9A6217
:10770C00BB6A9B699B007B6323E0BB6A1B89002BD4
:10771C0006D10D2391E000BFBC010020F5FFFF0F47
:10772C00BB6A5A6ABB6B1A44BB6A9A623B6B022BEC
:10773C0003D1BB6A9B695B000AE0BB6A9A6913467A
:10774C005B0013445A08BB6A9B6903F001031344A2
:10775C007B63BB6ADA697B6B03F2FF135B0A9A42A9
:10776C0001D20D2369E0BB6A4FF0FF325A61BB6A4C
:10777C005A69BB6A1A61BB6A80221A713B6B032B74
:10778C0049D1BB6A343330331846FDF787FD0346C5
:10779C00012B40D13B6A01331946B86AFDF759FFFA
:1077AC000346002B37D1BB6A00221A71BB6A3433F3
:1077BC0003F5FF731846FDF771FD03461A464AF6AA
:1077CC0055239A4227D1BB6A34331846FDF77EFD08
:1077DC0003461C4A93421ED1BB6A343303F5F27341
:1077EC001846FDF773FD0346174A934213D1BB6A43
:1077FC00343303F5F4731846FDF768FD0246BB6A93
:10780C005A61BB6A343303F5F6731846FDF75EFD17
:10781C000246BB6A1A613B6BDAB2BB6A1A700B4B3D
:10782C001B8801339AB2094B1A80084B1A88BB6A21
:10783C00DA80BB6A064ADA60002318464037BD4638
:10784C0080BD00BF5252614172724161C001002083
:10785C00C401002080B584B000AF78603960092382
:10786C00FB737B68002B1CD07B681B68002B18D02B
:10787C007B681B681B78002B13D07B689A887B680D
:10788C001B68DB889A420CD17B681B685B781846B6
:10789C00FDF776FC034603F00103002B01D1002316
:1078AC00FB73FB7B002B02D17B681B6800E0002381
:1078BC003A681360FB7B18461037BD4680BD00004C
:1078CC0080B588B000AFF860B9601346FB71BB6837
:1078DC003B6107F110031846FFF785FCF861FB6963
:1078EC00002B01DA0B2325E0144AFB6952F82330F4
:1078FC00BB61BB69002B02D0BB6900221A70FB680C
:10790C00002B02D0FB6800221A70FA680B49FB6945
:10791C0041F82320FB79002B01D100230AE007F169
:10792C000C0107F1080300221846FFF78FFD0346F0
:10793C00FB75FB7D18462037BD4680BDBC01002081
:10794C0080B59AB000AFF860B9601346FB71FB6864
:10795C00002B01D1092376E1FB7903F03F03FB7186
:10796C00FA7907F1140107F108031846FFF76EFDC9
:10797C00034687F8673097F86730002B40F05A8140
:10798C007B69BB61BA6807F1180311461846FFF70B
:10799C00BBFB034687F8673097F86730002B07D19D
:1079AC0097F843305BB2002B02DA062387F8673076
:1079BC00FB7903F01C03002B77D097F86730002B72
:1079CC0010D097F86730042B07D107F1180318462D
:1079DC00FEF70AFF034687F86730FB7943F008038C
:1079EC00FB7110E0BB7F03F01103002B03D00723C6
:1079FC0087F8673007E0FB7903F00403002B02D013
:107A0C00082387F8673097F86730002B67D1FB792C
:107A1C0003F00803002B62D08D4BBB657B6B0E33E0
:107A2C00B96D1846FDF790FC7B6B1633B96D184693
:107A3C00FDF78AFC7B697A6B11461846FEF72DFB25
:107A4C0078657B6B0B3320221A707B69796B002273
:107A5C001846FEF741FB7B6B1C3300211846FDF7E3
:107A6C0073FC7B690122DA707B6D002B37D07B694C
:107A7C001B6B3B6507F118030022796D1846FEF766
:107A8C0036F8034687F8673097F86730002B26D115
:107A9C007B69396D1846FDF7DCFD034687F86730C6
:107AAC007B697A6D013A1A6119E097F86730002BFF
:107ABC0015D1BB7F03F01003002B03D0042387F8F0
:107ACC0067300CE0FB7903F00203002B07D0BB7F7F
:107ADC0003F00103002B02D0072387F8673097F8D7
:107AEC006730002B0FD1FB7903F00803002B03D078
:107AFC00FB7943F04003FB717B691A6BFB681A62DC
:107B0C007A6BFB685A6297F86730002B40F09280D2
:107B1C007B697A6B11461846FEF7BFFA0246FB6882
:107B2C009A607B6B1C331846FDF7D0FB0246FB6852
:107B3C00DA607A69FB681A607B69DA88FB689A807C
:107B4C00FB68FA791A74FB6800225A74FB680022ED
:107B5C00DA61FB6800225A61FB6828334FF400722B
:107B6C0000211846FDF73DFCFB7903F02003002BA8
:107B7C0060D0FB68DB68002B5CD0FB68DA68FB68C4
:107B8C005A617B695B895B02FB64FB689B683B66A3
:107B9C00FB68DB68FB6516E0FB68396E1846FDF781
:107BAC0012FE38663B6E012B02D8022387F8673031
:107BBC003B6EB3F1FF3F02D1012387F86730FA6DBA
:107BCC00FB6CD31AFB6597F86730002B03D1FA6D69
:107BDC00FB6C9A42E0D8FB683A6E9A6197F8673072
:107BEC00002B27D1FB6DC3F30803002B22D07B693C
:107BFC00396E1846FDF7C8FD38653B6D002B03D177
:107C0C00022387F8673015E0FB6D5A0A3B6D1A4466
:107C1C00FB68DA617B695878FB6803F12801FB6823
:107C2C00DA690123FDF7CAFA0346002B02D00123BF
:107C3C0087F8673097F86730002B02D0FB6800227A
:107C4C001A6097F8673018466837BD4680BD00BF8C
:107C5C000000755280B58EB000AFF860B9607A60E4
:107C6C003B60BB687B623B6800221A60FB6807F1D3
:107C7C00140211461846FFF7EDFD034687F837301E
:107C8C0097F83730002B07D1FB685B7C87F83730CF
:107C9C0097F83730002B02D097F8373009E1FB68A2
:107CAC001B7C03F00103002B01D1072301E1FB68CE
:107CBC00DA68FB685B69D31A3B627A683B6A9A4262
:107CCC0040F2F2803B6A7B60EEE0FB685B69C3F3D9
:107CDC000803002B40F0BA80FB685B695B0A7A6989
:107CEC005289013A1340FB61FB69002B23D1FB68DD
:107CFC005B69002B03D1FB689B683B6307E0FA6868
:107D0C00FB689B6919461046FDF75DFD38633B6BBC
:107D1C00012B04D8FB6802225A740223C9E03B6B86
:107D2C00B3F1FF3F04D1FB6801225A740123C0E078
:107D3C00FB683A6B9A617A69FB689B691946104635
:107D4C00FDF722FDB861BB69002B04D1FB68022250
:107D5C005A740223ADE0BA69FB691344BB617B68BA
:107D6C005B0ABB62BB6A002B39D0FA69BB6A13444D
:107D7C007A695289934205D97B695B891A46FB69FA
:107D8C00D31ABB627B695878BB6ABA69796AFDF70A
:107D9C0015FA0346002B04D0FB6801225A74012308
:107DAC0087E0FB681B7C5BB2002B14DAFB68DA699A
:107DBC00BB69D31ABA6A9A420DD9FB68DA69BB69F6
:107DCC00D31A5B027A6AD018FB6828334FF400721E
:107DDC001946FDF7E5FABB6A5B02FB6250E0FB68F3
:107DEC00DB69BA699A422ED0FB681B7C5BB2002B14
:107DFC0018DA7B695878FB6803F12801FB68DA69AB
:107E0C000123FDF709FA0346002B04D0FB6801227D
:107E1C005A7401234DE0FB681B7C03F07F03DAB23C
:107E2C00FB681A747B695878FB6803F128010123FD
:107E3C00BA69FDF7C3F90346002B04D0FB68012295
:107E4C005A74012335E0FB68BA69DA61FB685B6937
:107E5C00C3F30803C3F50073FB62FA6A7B689A42AA
:107E6C0001D97B68FB62FB6803F12802FB685B6944
:107E7C00C3F308031344FA6A1946786AFDF790FABB
:107E8C007A68FB6AD31A7B603B681A68FB6A1A44EF
:107E9C003B681A607A6AFB6A13447B62FB685A6916
:107EAC00FB6A1A44FB685A617B68002B7FF40DAFA8
:107EBC00002318463837BD4680BD80B58CB000AF66
:107ECC00F860B9607A603B60BB68FB613B6800227C
:107EDC001A60FB6807F1100211461846FFF7BAFC4E
:107EEC00034687F82F3097F82F30002B07D1FB680B
:107EFC005B7C87F82F3097F82F30002B02D097F847
:107F0C002F303FE1FB681B7C03F00203002B01D1F7
:107F1C00072337E1FB685A697B681A44FB685B6985
:107F2C009A4280F02181FB685B69DB437B601BE13B
:107F3C00FB685B69C3F30803002B40F0D780FB6838
:107F4C005B695B0A3A695289013A1340BB61BB69B0
:107F5C00002B37D1FB685B69002B0CD1FB689B684D
:107F6C00BB62BB6A002B0ED1FB6800211846FDF7E3
:107F7C0023FEB86207E0FA68FB689B691946104655
:107F8C00FDF71AFEB862BB6A002B00F0F280BB6AE8
:107F9C00012B04D1FB6802225A740223F2E0BB6A63
:107FAC00B3F1FF3F04D1FB6801225A740123E9E0CD
:107FBC00FB68BA6A9A61FB689B68002B02D1FB686C
:107FCC00BA6A9A60FB681B7C5BB2002B18DA3B69BF
:107FDC005878FB6803F12801FB68DA690123FDF787
:107FEC001BF90346002B04D0FB6801225A740123B1
:107FFC00C8E0FB681B7C03F07F03DAB2FB681A74E1
:10800C003A69FB689B6919461046FDF7BDFB786120
:10801C007B69002B04D1FB6802225A740223B1E065
:10802C007A69BB6913447B617B685B0A3B623B6A80
:10803C00002B3CD0BA693B6A13443A69528993428B
:10804C0005D93B695B891A46BB69D31A3B623B690C
:10805C0058783B6A7A69F969FDF7DEF80346002B1C
:10806C0004D0FB6801225A7401238BE0FB68DA69A7
:10807C007B69D31A3A6A9A4215D9FB6803F1280036
:10808C00FB68DA697B69D31A5B02FA6913444FF413
:10809C0000721946FDF784F9FB681B7C03F07F0323
:1080AC00DAB2FB681A743B6A5B027B623FE0FB68E6
:1080BC00DB697A699A4216D0FB685A69FB68DB68FF
:1080CC009A4210D23B695878FB6803F128010123CE
:1080DC007A69FDF773F80346002B04D0FB68012284
:1080EC005A7401234EE0FB687A69DA61FB685B69BC
:1080FC00C3F30803C3F500737B627A6A7B689A4208
:10810C0001D97B687B62FB6803F12802FB685B6921
:10811C00C3F3080313447A6AF9691846FDF740F96A
:10812C00FB681B7C63F07F03DAB2FB681A747A6815
:10813C007B6AD31A7B603B681A687B6A1A443B687B
:10814C001A60FA697B6A1344FB61FB685A697B6AA3
:10815C001A44FB685A61FB68DA68FB685B699A42EF
:10816C0038BF1A46FB68DA607B68002B7FF4E0AE00
:10817C0000E000BFFB681B7C43F04003DAB2FB68F5
:10818C001A74002318463037BD4680BD80B586B0C2
:10819C0000AF78607B6807F1080211461846FFF7BC
:1081AC0059FB0346FB75FB7D002B67D17B681B7C61
:1081BC0003F04003002B61D07B681B7C5BB2002B6F
:1081CC0015DABB6858787B6803F128017B68DA699B
:1081DC000123FDF721F80346002B01D001234EE0CB
:1081EC007B681B7C03F07F03DAB27B681A74264B26
:1081FC003B61BA687B681B6A19461046FDF729FA81
:10820C000346FB75FB7D002B38D17B685B6AFB60FA
:10821C00FB680B331A78FB680B3342F02002D2B2A6
:10822C001A707B6818687B689B681A46F968FDF7BA
:10823C0053FFFB6803F11C027B68DB681946104690
:10824C00FDF782F8FB68163339691846FDF77CF8A0
:10825C00FB68123300211846FDF75BF8BB6801225E
:10826C00DA70BB681846FDF721FA0346FB757B688C
:10827C001B7C23F04003DAB27B681A74FB7D184632
:10828C001837BD4680BD00BF0000755280B584B064
:10829C0000AF78607868FFF779FF0346FB73FB7BD0
:1082AC00002B0ED17B6807F1080211461846FFF728
:1082BC00D1FA0346FB73FB7B002B02D17B680022B7
:1082CC001A60FB7B18461037BD4680BD80B584B064
:1082DC0000AF786039607B68002B01D109234AE03C
:1082EC0007F108013B4600221846FFF7AFF803469A
:1082FC00FB73FB7B002B37D1BA687B681A603B6839
:10830C0019467868FEF700FF0346FB73FB7B002BD6
:10831C0025D17B6893F82B305BB2002B12DB7B688A
:10832C009B7903F01003002B0AD0BA687B68DB69D9
:10833C0019461046FDF7B1FE02467B689A6001E0D3
:10834C000523FB73FB7B002B09D1BB68DA887B68A8
:10835C009A8000217868FDF748FD0346FB73FB7B90
:10836C00042B01D10523FB73FB7B002B02D07B6814
:10837C0000221A60FB7B18461037BD4680BD80B5C5
:10838C0084B000AF786039607B6807F10802114651
:10839C001846FFF75FFA0346FB73FB7B002B26D1D5
:1083AC003B68002B06D100217868FDF71EFD0346C3
:1083BC00FB731CE000217868FEF7AFF80346FB73F3
:1083CC00FB7B042B01D10023FB73FB7B002B0ED119
:1083DC0039687868FEF700FB00217868FDF780FDAE
:1083EC000346FB73FB7B042B01D10023FB73FB7B4C
:1083FC0018461037BD4680BD80B584B000AF78609C
:10840C00396039687868FFF7BAFF0346FB73FB7B6A
:10841C00002B14D13B68002B11D03B689B7D002BAB
:10842C000DD07B68186B3B6803F116010423002206
:10843C00FEF710FC0346002B00D1E2E700BFFB7BEC
:10844C0018461037BD4680BD80B586B000AFF860C9
:10845C00B9607A603B60FB683A681A637968F868BF
:10846C00FFF734FF0346FB75FB7D002B05D1B96884
:10847C00F868FFF7C1FF0346FB75FB7D18461837FC
:10848C00BD4680BD80B598B000AF786007F108019B
:10849C003B1D02221846FEF7D9FF034687F85F30D2
:1084AC0097F85F30002B40F0B380BB68FB617A68B3
:1084BC0007F11C0311461846FEF726FE034687F803
:1084CC005F3097F85F30002B02D1082387F85F30BC
:1084DC0097F85F30042B40F09B80BB68FB6007F182
:1084EC000C0300211846FDF767FBB865002387F8DD
:1084FC005F30BB6D002B02D1072387F85F30BB6D5B
:10850C00012B02D1022387F85F30BB6DB3F1FF3F23
:10851C0002D1012387F85F30404B7B6597F85F30C1
:10852C00002B4BD1BB68B96D1846FDF716FC034602
:10853C0087F85F3097F85F30002B3FD1BB6834333E
:10854C000B2220211846FCF74CFFBB682E2283F827
:10855C003420BB68102283F83F20BB6834331633B9
:10856C00796D1846FCF7F0FEB868BB683433BA6D09
:10857C001946FDF7B1FDBB68343303F12000BB682D
:10858C00343320221946FCF70BFFBB682E2283F8EC
:10859C0055207B6A3B65B868BB68343320333A6D31
:1085AC001946FDF799FDBB680122DA7007F11C032F
:1085BC001846FEF719F9034687F85F3097F85F30D5
:1085CC00002B1ED1BB6B1633796D1846FCF7BCFE25
:1085DC00BB68B96BBA6D1846FDF77EFDBB6B0B33F0
:1085EC0010221A70BB680122DA7097F85F30002BEA
:1085FC000ED1BB681846FDF759F8034687F85F3073
:10860C0006E007F10C030022B96D1846FDF76FFA6E
:10861C0097F85F3018466037BD4680BD0000755234
:10862C0080B58AB000AFF860B9607A6000237B62D5
:10863C00FB683B62BB68013BBB601CE007F11403A9
:10864C0007F1180101227868FFF704FB7B69012B05
:10865C0016D13B7EFB61FB690D2B00D10BE03B6A15
:10866C005A1C3A62FA69D2B21A707B6A01337B6285
:10867C00FB690A2B06D07A6ABB689A42DEDB02E001
:10868C0000BF00E000BF3B6A00221A707B6A002B1F
:10869C0001D0FB6800E0002318462837BD4680BD9A
:1086AC0080B586B000AF78600B46FB70FB780A2B68
:1086BC0003D10D217868FFF7F3FF7B685B687B6162
:1086CC007B69002B27DB7B689B683B617B695A1CB1
:1086DC007A617A681344FA781A737B693B2B12DD42
:1086EC007B6818687B6803F10C017A6907F10C034D
:1086FC00FFF7E3FBFA687B699A4201D1002301E0A2
:10870C004FF0FF337B617B687A695A603B695A1C76
:10871C007B689A6000E000BF1837BD4680BD80B50D
:10872C0084B000AF78607B685B68002B16DB7B68DD
:10873C0018687B6803F10C017B685B681A4607F1CB
:10874C000C03FFF7BAFB0346002B07D17B685B6871
:10875C00FA68934202D17B689B6801E04FF0FF33CB
:10876C0018461037BD4680BD80B582B000AF78602A
:10877C0039604C2200217868FCF733FE7B683A683C
:10878C001A6000BF0837BD4680BD80B596B000AFFB
:10879C007860396007F10C0339681846FFF7E4FF7D
:1087AC0009E07B685A1C7A601A7807F10C031146B1
:1087BC001846FFF775FF7B681B78002BF1D107F18A
:1087CC000C031846FFF7ABFF034618465837BD4657
:1087DC0080BD000080B485B000AF78600B467B8014
:1087EC000023FB81174BBB607B687F2B02D87B6817
:1087FC00FB811FE07B68B3F5803F1BD27B8840F286
:10880C00B512934216D10023FB8102E0FB890133A0
:10881C00FB81FB897F2B08D8FB895B00BA6813446A
:10882C001B881A467B689342F0D1FB8980339BB23C
:10883C00DBB2FB81FB8918461437BD465DF8047B1F
:10884C00704700BF484E010880B485B000AF0346A6
:10885C000A46FB801346BB800023FB810F4BBB6099
:10886C00FB887F2B02D8FB88FB8110E0BB8840F291
:10887C00B51293420BD1FB88FF2B08D8FB8803F170
:10888C000043803B5B00BA6813441B88FB81FB8967
:10889C0018461437BD465DF8047B7047484E0108F6
:1088AC0080B487B000AF78607B68B3F5803F7DD231
:1088BC007B687B827B8AB3F5805F01D23F4B00E003
:1088CC003F4B7B617B699A1C7A611B883B823B8A9C
:1088DC00002B69D07A8A3B8A9A4265D37B699A1CB1
:1088EC007A611B88FB81FB891B0ABB81FB89DBB28C
:1088FC00FB817A8A398AFB890B449A424ADABB8912
:10890C00082B50D801A252F823F000BF3D89000873
:10891C004F890008658900086D8900087589000871
:10892C007D890008858900088D89000895890008D3
:10893C007A8A3B8AD31A5B007A6913441B887B8240
:10894C0027E07A8A3B8AD31A9BB203F001039BB2CD
:10895C007A8AD31A7B821CE07B8A103B7B8218E0DC
:10896C007B8A203B7B8214E07B8A303B7B8210E04D
:10897C007B8A1A3B7B820CE07B8A08337B8208E083
:10898C007B8A503B7B8204E07B8AA3F5E3537B829A
:10899C0000BF08E0BB89002B94D1FB895B007A698E
:1089AC0013447B618EE700BF7B8A7B607B68184633
:1089BC001C37BD465DF8047B704700BF484F01086B
:1089CC003C51010880B582B000AFFF23BB7102F0AF
:1089DC003BFE0EE0F91DBB1D0122184602F040FDC6
:1089EC000346002B01D0FF2312E0FB795BB2002B76
:1089FC0005DA02F037FE0346002BEBD100E000BF96
:108A0C0002F03AFE0346002B01D0FF2300E0FB7975
:108A1C0018460837BD4680BD80B584B000AF03460C
:108A2C00FB71FF23BB7302F00FFE17E007F10F0180
:108A3C0007F10E030122184602F012FD0346002B2B
:108A4C0002D04FF0FF3319E0FB7BFA799A420BD03E
:108A5C00FB7BFF2B02D04FF0FF330FE002F002FE46
:108A6C000346002BE2D100E000BF02F005FE0346F6
:108A7C00002B02D06FF01D0300E0002318461037C6
:108A8C00BD4680BD80B584B000AF78600B467B805E
:108A9C00FF23FB7312E007F10F03012279681846DC
:108AAC0002F0DEFC0346002B02D04FF0FF3309E04E
:108ABC007B6801337B607B88013B7B807B88002B50
:108ACC00E9D1002318461037BD4680BD80B582B071
:108ADC0000AF02F0B9FDFB1D01211846FFF7D2FFD4
:108AEC000346002B02DA4FF0FF3310E0FB79FF2B2B
:108AFC0004D002F0B7FD0346012BECD002F0BCFD14
:108B0C000346002B02D06FF01D0300E00023184633
:108B1C000837BD4680BD000080B58EB000AF02F0B6
:108B2C0067FD0346002B02D16FF01C0301E102F03C
:108B3C0050FDFF2387F8323000237B6308E007F1F8
:108B4C0032030121184602F0E3FC7B6B01337B639B
:108B5C007B6B092BF3DD02F02DFDFFF7B7FF03460E
:108B6C00002B04DA02F035FD4FF0FF33E1E0734ADD
:108B7C0007F12C0392E8030018600433198007F105
:108B8C002C030621184602F0C3FCFFF71BFF03461B
:108B9C00012B04D002F01DFD4FF0FF33C9E0FFF7AD
:108BAC0095FF0346002B04DA02F013FD4FF0FF3360
:108BBC00BFE0634A07F1240392E803001860043312
:108BCC00198007F124030621184602F0A1FCFFF7D7
:108BDC00F9FE0346012B04D002F0FBFC6FF00103FD
:108BEC00A7E007F1200304211846FFF74BFF0346CB
:108BFC00002B04DA02F0EDFC6FF0020399E097F819
:108C0C00223003F00103002B03D097F82330AA2B5A
:108C1C0004D002F0DEFC6FF003038AE0FFF756FF8E
:108C2C000346002B04DA02F0D4FC4FF0FF3380E053
:108C3C00444A07F1180392E80300186004331980C2
:108C4C0007F118030621184602F062FCFFF7BAFE82
:108C5C000346012B04D002F0BCFC6FF0040368E067
:108C6C00FFF734FF0346002B04DA02F0B2FC4FF09E
:108C7C00FF335EE0344A07F1100392E803001860FA
:108C8C000433198007F110030621184602F040FC4A
:108C9C00FFF798FE034687F8333097F83330002BF4
:108CAC0008D097F83330012BB8D002F092FC6FF05B
:108CBC0005033EE000BFFFF709FF0346002B04DA73
:108CCC0002F087FC4FF0FF3333E0204A07F1080332
:108CDC0092E8030018600433198007F10803062199
:108CEC00184602F015FCFFF76DFE0346002B04D06E
:108CFC0002F06FFC6FF006031BE03B1D04211846CD
:108D0C00FFF7C0FE0346002B04DA02F062FC6FF0A2
:108D1C0007030EE03B7903F0C003C02B04D002F034
:108D2C0058FC6FF0080304E002F053FC02F06AFCFC
:108D3C00002318463837BD4680BD00BF184C0108CB
:108D4C00204C0108284C0108304C0108384C010813
:108D5C0080B584B000AF786002F04AFC0346002B6B
:108D6C0002D16FF01C0331E002F024FCFFF7AEFEE1
:108D7C000346002B04DA02F02CFC4FF0FF3325E005
:108D8C0052233B727B681B0EDBB27B727B681B0C25
:108D9C00DBB2BB727B681B0ADBB2FB727B68DBB29B
:108DAC003B73FF237B7307F108030621184602F07F
:108DBC00AFFBFFF707FE0346002B04D002F009FCC3
:108DCC006FF0010302E002F004FC00231846103798
:108DDC00BD4680BD80B584B000AF786002F008FC61
:108DEC000346002B02D16FF01C032AE002F0E2FBD9
:108DFC00FE20FFF711FE0346002B04DA02F0E9FB1C
:108E0C004FF0FF331DE04FF400717868FFF73AFE26
:108E1C000346002B04DA02F0DCFB6FF0010310E0D8
:108E2C0007F10C0302211846FFF72CFE0346002B1A
:108E3C0004DA02F0CEFB6FF0020302E002F0C9FB91
:108E4C00002318461037BD4680BD000080B582B0A7
:108E5C0000AF02F0CDFB0346002B02D16FF01C03D8
:108E6C0027E002F0A7FB154A3B4692E80300186086
:108E7C00043319803B460621184602F049FBFB1DC2
:108E8C0001211846FFF7FEFD0346002B04DA02F021
:108E9C00A0FB4FF0FF330CE0FFF794FD0346002BD3
:108EAC0004D002F096FB6FF0010302E002F091FB9C
:108EBC00002318460837BD4680BD00BF484C01084A
:108ECC0080B584B000AF786002F092FB0346002BB3
:108EDC0002D16FF01C0331E002F06CFBFFF7F6FDE2
:108EEC000346002B04DA02F074FB4FF0FF3325E04D
:108EFC0059233B727B681B0EDBB27B727B681B0CAD
:108F0C00DBB2BB727B681B0ADBB2FB727B68DBB229
:108F1C003B73FF237B7307F108030621184602F00D
:108F2C00F7FAFFF74FFD0346002B04D002F051FB7C
:108F3C006FF0010302E002F04CFB002318461037DF
:108F4C00BD4680BD80B584B000AF786002F050FBA8
:108F5C000346002B02D16FF01C0334E002F02AFB15
:108F6C00FC23FB734FF6FF73BB8107F10F03012149
:108F7C00184602F0CDFA4FF40071786802F0C8FA86
:108F8C0007F10C030221184602F0C2FA07F10B0399
:108F9C0001211846FFF776FDFB7A03F01F03052B22
:108FAC0004D002F016FB4FF0FF330CE0FFF78EFD00
:108FBC000346002B04DA02F00CFB6FF0010302E015
:108FCC0002F007FB002318461037BD4680BD80B564
:108FDC0082B000AF02F00CFB0346002B02D16FF005
:108FEC001C031AE002F0E6FAFD23FB71FB1D0121C4
:108FFC00184602F08DFABB1D01211846FFF742FD01
:10900C00FFF764FD0346002B04DA02F0E2FA4FF09E
:10901C00FF3302E002F0DDFA002318460837BD46A4
:10902C0080BD000080B584B000AF03460A46FB80CB
:10903C0013467B71234B03F5824325331B78002B9E
:10904C003BD0204B03F5844343337A791A70FB8869
:10905C001B0A9BB2DAB21B4B03F5844344331A70E0
:10906C00FB88DAB2174B03F5844345331A70164963
:10907C0004200BF053F80346FB73FB7B002B1DD035
:10908C00104B03F5814324331B781A460D4B1344C4
:10909C0003F581432533FA7B1A700A4B03F58143A0
:1090AC0024331B780133DBB203F07F03DAB2054BB8
:1090BC0003F5814324331A7000E000BF1037BD461E
:1090CC0080BD00BF201000206352002080B584B00A
:1090DC0000AF03460A46FB8013467B71234B03F516
:1090EC00824325331B78002B3BD0204B03F5844364
:1090FC0058337A791A70FB881B0A9BB2DAB21B4B75
:10910C0003F5844359331A70FB88DAB2174B03F515
:10911C0084435A331A70164903200AF0FFFF0346A2
:10912C00FB73FB7B002B1DD0104B03F581432433C9
:10913C001B781A460D4B134403F581432533FA7BF8
:10914C001A700A4B03F5814324331B780133DBB2CD
:10915C0003F07F03DAB2054B03F5814324331A7015
:10916C0000E000BF1037BD4680BD00BF20100020BE
:10917C007852002080B483B000AF0346FB71FB79BA
:10918C00602B02D9FB797A2B02D9FB792E2B01D1DA
:10919C00012318E0FB792F2B04D9FB79392B01D84B
:1091AC00012310E0FB79402B04D9FB795A2B01D811
:1091BC00012308E0FB795F2B02D0FB792D2B01D129
:1091CC00012300E0002318460C37BD465DF8047BF4
:1091DC007047000080B58AB000AF904B03F5824316
:1091EC0025331B78002B00F0E4838C4B03F5824372
:1091FC0027331B78CA2B07D0884B03F582432A33BD
:10920C001B78FE2B40F0D783844B03F58243283325
:10921C001B789BB21B029AB2804B03F58243293315
:10922C001B789BB21344FB83FB8B013B102B00F28E
:10923C00BA8301A252F823F0899200089F92000889
:10924C00B5920008099300081993000829930008A7
:10925C00779300088D930008E99400081595000891
:10926C00B39900085D950008D1950008AF960008E9
:10927C003B9700089D970008FF970008674B03F584
:10928C00814314331B68984700210120FFF7CAFE65
:10929C0092E3624B03F5814318331B689847002116
:1092AC000220FFF7BFFE87E35C4B1B78002B0BD033
:1092BC005A4BDB684FF4805259495A489847002161
:1092CC000320FFF7AFFE77E3544B9B680021564811
:1092DC009847524B1B78002B0BD0504BDB684FF44C
:1092EC0080524F494F48984700210320FFF79AFEC0
:1092FC0062E301210320FFF795FE5DE3474B1B6BF7
:10930C00984700210420FFF78DFE55E3434B5B6B20
:10931C00984700210520FFF785FE4DE33F4B9B69E5
:10932C0098470346002B1BD03C4B1B78002B12D1CB
:10933C003A4B9B6800213C489847384B1B78002BD4
:10934C0004D000210620FFF76DFE35E30321062033
:10935C00FFF768FE30E302210620FFF763FE2BE3E4
:10936C0001210620FFF75EFE26E3304B5B692F4A96
:10937C0083F00203536100210720FFF753FE1BE328
:10938C00264B03F582432B331B789BB21B029AB2FC
:10939C00224B03F582432C331B789BB21344FB8086
:1093AC00FB88B3F5805F04D301210820FFF78EFE04
:1093BC0002E3FB881433BB84BB8CB3F5805F02D90A
:1093CC004FF48053BB84FB881B0A9BB2DAB2134B5D
:1093DC0003F584435B331A70FB88DAB20F4B03F549
:1093EC0084435C331A70BA8CFB88D31A9BB21B0A69
:1093FC009BB2DAB2094B03F584435D331A70BB8C14
:10940C00DAB2FB88DBB2D31ADAB2044B03F584432D
:10941C005E331A70FB88FB8457E000BF20100020DD
:10942C00AC100020504C01085C4C010800040048B2
:10943C00FA8CFB88D31A9BB29B009BB20733BB8080
:10944C00FB8CA64A22339B0013445B681A0EBB8824
:10945C00D1B2A24A134403F5844358330A461A7016
:10946C00FB8C9E4A22339B0013445B681A0CBB880E
:10947C000133D1B2994A134403F5844358330A4655
:10948C001A70FB8C954A22339B0013445B681A0AB2
:10949C00BB880233D1B2914A134403F58443583349
:1094AC000A461A70FB8C8D4A22339B0013445A686F
:1094BC00BB880333D1B2894A134403F58443583330
:1094CC000A461A70FB8C0133FB84FA8CBB8C9A42D3
:1094DC00AED300210820FFF7F9FD6DE20023FB84D9
:1094EC0009E0FB8C7D4A22339B00134400225A6016
:1094FC00FB8C0133FB84FB8CB3F5805FF1D3002133
:10950C000920FFF78FFD57E2744B03F582432B3391
:10951C001B789BB21B029AB2704B03F582432C331F
:10952C001B789BB21344BB84BB8C312B06D83223E3
:10953C00BB8401210A20FFF775FD03E000210A20FE
:10954C00FFF770FD654BDB6ABA8C1046984733E227
:10955C00624B03F582432B331B781A065F4B03F5E2
:10956C0082432C331B781B041A445C4B03F5824357
:10957C002D331B781B021A44584B03F582432E33B0
:10958C001B781344BB60BA6813461B019B1A9B00E3
:10959C00BB60BB68002B07D1504B03F581431033E4
:1095AC004FF0FF321A6008E04C4B5A6DBB681A44FE
:1095BC004A4B03F5814310331A6000210C20FFF74E
:1095CC0031FDF9E1454B03F582432B331B787B735B
:1095DC00424B03F582432C331B783B737B7B2F2B45
:1095EC0002D97B7B392B10D97B7B602B02D97B7BFF
:1095FC007A2B0AD97B7B402B02D97B7B5A2B04D943
:10960C0001210D20FFF70EFDD6E13B7B2F2B02D95C
:10961C003B7B392B10D93B7B602B02D93B7B7A2BC4
:10962C000AD93B7B402B02D93B7B5A2B04D9012115
:10963C000D20FFF7F7FCBFE1284B03F5864364339D
:10964C007A7B1A70254B03F5864364331A78244BC6
:10965C001A72224B03F5864365333A7B1A701F4B03
:10966C0003F5864365331A781D4B5A721B4B1B78D6
:10967C00002B04D1194B9B6800211A489847174BB3
:10968C001B78002B08D0154B5B69174898470021B5
:10969C000D20FFF7C7FC8FE102210D20FFF7C2FC64
:1096AC008AE10E4B03F582432B331B789BB21B02D2
:1096BC009AB20A4B03F582432C331B789BB21344AA
:1096CC00FB81FB89042B03D9FB89B3F57A7F0DD978
:1096DC0001210E20FFF7A6FC6EE100BF2010002038
:1096EC00100000205C4C0108845300206F4B1B7849
:1096FC00002B04D16D4B9B6800216D4898476B4B38
:10970C001B78002B0ED0694B03F586436633FA8920
:10971C001A80664B5B696748984700210E20FFF75B
:10972C0081FC49E102210E20FFF77CFC44E15F4BF8
:10973C0003F582432B331B789BB21B029AB25B4B13
:10974C0003F582432C331B789BB213443B82574B5B
:10975C0003F5864368333A8A1A80544B1B78002BE6
:10976C0004D1524B9B680021514898474F4B1B78B2
:10977C00002B08D04D4B5B694E48984700210F20B9
:10978C00FFF750FC18E101210F20FFF74BFC13E110
:10979C00464B03F582432B331B789BB21B029AB2C8
:1097AC00424B03F582432C331B789BB213447B82D0
:1097BC003E4B03F586436A337A8A1A803B4B1B78FF
:1097CC00002B04D1394B9B68002139489847374B03
:1097DC001B78002B08D0354B5B6936489847002125
:1097EC001020FFF71FFCE7E001211020FFF71AFC07
:1097FC00E2E000233B62304B1B6803F00103002BBB
:10980C0003D03B6A43F001033B624FF080431B687B
:10981C0003F00103002B03D03B6A43F002033B62CD
:10982C00224B9B6998470346002B03D03B6A43F0BD
:10983C0004033B621D4B1B78002B03D03B6A43F0A7
:10984C0008033B62194B03F5814324331B78002B2F
:10985C0003D03B6A43F010033B62144B03F5814386
:10986C0010331B68B3F1FF3F03D03B6A43F0200376
:10987C003B62114B1B6803F08043002B03D03B6A07
:10988C0043F040033B623B6A03F02003002B17D0EC
:10989C00064B03F5814310331A68044B5B6DD31AE6
:1098AC00064AA2FB03235B090BE000BF201000203B
:1098BC005C4C01088453002004020140898888888C
:1098CC000023BB613E4B7B613B6A1A0E7B69033301
:1098DC00D2B21A703B6A1A0C7B690433D2B21A707A
:1098EC003B6A1A0A7B690533D2B21A707B6906335C
:1098FC003A6AD2B21A70BB691A0E7B690733D2B2BC
:10990C001A70BB691A0C7B690833D2B21A70BB6926
:10991C001A0A7B690933D2B21A707B690A33BA69A5
:10992C00D2B21A70274B03F5864366331B881B0A89
:10993C009AB27B690B33D2B21A70224B03F5864371
:10994C0066331A887B690C33D2B21A701D4B03F53F
:10995C00864368331B881B0A9AB27B690D33D2B2DB
:10996C001A70184B03F5864368331A887B690E33DB
:10997C00D2B21A70134B03F586436A331B881B0A49
:10998C009AB27B690F33D2B21A700E4B03F5864331
:10999C006A331A887B691033D2B21A7000211120F5
:1099AC00FFF740FB08E0AA214FF6FF70FFF73AFBE8
:1099BC0002E000BF00E000BF2837BD4680BD00BFFD
:1099CC00635200202010002080B582B000AF574BAE
:1099DC0003F5824325331B78002B00F0A080534BFA
:1099EC0003F582433D331B78CA2B07D04F4B03F54D
:1099FC00824340331B78FE2B40F093804B4B03F596
:109A0C0082433E331B789BB21B029AB2474B03F541
:109A1C0082433F331B789BB21344BB80BB880B2B18
:109A2C0077D1424B03F5824341331B787B807B8893
:109A3C00042B02D97B88402B04D901210B20FFF782
:109A4C00F1FA6FE0394B03F5824342331B78232B39
:109A5C000ED07B880633354A134403F582433D33DD
:109A6C001B78232B04D002210B20FFF7DBFA59E0E3
:109A7C000023FB801BE0FB880633FA882B490B4440
:109A8C0003F582433D331978294B9954FB88284AB6
:109A9C00D35C1846FFF76EFB0346002B04D1032161
:109AAC000B20FFF7BFFA3DE0FB880133FB80FA88FF
:109ABC007B889A42DFD37B881D4A0021D1541B4BF3
:109ACC001B78002B0BD0194BDB684FF480521949D3
:109ADC001748984700210B20FFF7A4FA22E0134BFC
:109AEC009B68002114489847104B1B78002B0BD017
:109AFC000E4BDB684FF480520E490D4898470021FD
:109B0C000B20FFF78FFA0DE004210B20FFF78AFAE8
:109B1C0008E0AA214FF6FF70FFF784FA02E000BFBD
:109B2C0000E000BF0837BD4680BD00BF20100020FC
:109B3C00C4030020AC1000205C4C010880B582B03E
:109B4C0000AF184B03F5824325331B78002B25D02F
:109B5C00154902200AF0E2FA0346FB71FB79002B4F
:109B6C001DD0104B03F5814324331B781A460D4B43
:109B7C00134403F581432533FA791A70094B03F525
:109B8C00814324331B780133DBB203F07F03DAB259
:109B9C00044B03F5814324331A7000E000BF0837EF
:109BAC00BD4680BD201000205252002080B500AF71
:109BBC00064B9B6998470346002B04D0034B9B68CC
:109BCC0000210348984700BF80BD00BF2010002033
:109BDC005C4C010880B500AF0D4B9B699847034660
:109BEC00002B13D00A4B1B78002B04D1084B9B681D
:109BFC00002108489847064B1B78002B06D0044BD5
:109C0C00DB684FF4805204490448984700BF80BD7C
:109C1C00201000205C4C0108AC100020604C0108A6
:109C2C0080B400AF054B1B780133DAB2034B1A70CA
:109C3C0000BFBD465DF8047B704700BF0A040020DE
:109C4C0080B400AF0E4B1B680D4A43F00103136048
:109C5C000B4B9B680A4A43F00103936000BF084B0F
:109C6C001B6803F00103002BF9D0054B1B68044A59
:109C7C0043F00103136000BFBD465DF8047B7047E1
:109C8C000000045080B400AF00BF0C4B9B6803F085
:109C9C000C03002BF9D1094B9B68084A43F00203D3
:109CAC00936000BF054B9B6803F00103002BF9D1B7
:109CBC0000BF00BFBD465DF8047B70470000045038
:109CCC0080B500AF1E4B9B681D4A23F44033936054
:109CDC001B4B9B681A4A43F480339360194BDB6827
:109CEC00184A43F00103D360164BDB68154A43F462
:109CFC000053D360134B9B6803F00053002B0BD124
:109D0C00104B9B6803F08053002B05D00D4B9B68C8
:109D1C0003F00103002B01D002F032FF094B9B68CA
:109D2C00084A43F00043936000BF064B9B68002B2E
:109D3C00FBDBFFF775FFFFF783FF00BF80BD00BFA4
:109D4C00000304500000045080B400AF054B9B6826
:109D5C00044A43F00803936000BFBD465DF8047BE2
:109D6C00704700BF0000045080B400AF054B9B68E7
:109D7C00044A43F00403936000BFBD465DF8047BC6
:109D8C00704700BF0000045080B483B000AF0D4B8F
:109D9C001B6803F04003002B14BF01230023DBB22C
:109DAC00FB71FB79002B05D0064B1B68054A43F071
:109DBC0040031360FB7918460C37BD465DF8047BF5
:109DCC00704700BF0000045080B483B000AF0D4B4F
:109DDC001B6803F00803002B14BF01230023DBB224
:109DEC00FB71FB79002B05D0064B1B68054A43F031
:109DFC0008031360FB7918460C37BD465DF8047BED
:109E0C00704700BF0000045080B400AF034B1B6CC4
:109E1C009BB21846BD465DF8047B704700000450A9
:109E2C0080B400AF044BD3F880309BB21846BD46CB
:109E3C005DF8047B704700BF0000045080B500AF94
:109E4C00FFF720FF074B9B68064A43F000439360E3
:109E5C0000BF044B9B68002BFBDBFFF7F1FE00BF40
:109E6C0080BD00BF0000045080B483B000AF7860A8
:109E7C00104B00221A707B680F4A1A607B680F4ADD
:109E8C005A607B680E4A9A607B680E4ADA607B687F
:109E9C000D4A1A617B680D4A5A617B680C4A9A61BB
:109EAC007B680C4ADA6100BF0C37BD465DF8047B59
:109EBC00704700BF0A040020CD9C0008559D000887
:109ECC00759D0008959D0008D59D0008159E0008FD
:109EDC002D9E0008499E000880B483B000AF034655
:109EEC00FB800F4B0F4A9A600D4B0F4ADA600C4AFD
:109EFC00FB8853600D4AFB881380094B1B68084A8A
:109F0C0043F002031360064B1B68054A43F0010340
:109F1C00136000BF0C37BD465DF8047B704700BF73
:109F2C0008000240400004500C0400200C0C0020DF
:109F3C0080B483B000AF786039607B68054A1A60E2
:109F4C00054B1A883B681A8000BF0C37BD465DF87C
:109F5C00047B70470C0400200C0C002080B483B0F0
:109F6C0000AF7860074B00221A807B68064A1A60A3
:109F7C007B68064A5A6000BF0C37BD465DF8047B0F
:109F8C00704700BF0C0C0020E59E00083D9F0008A8
:109F9C0080B584B000AF78600023FB8100BFFB89E3
:109FAC005A1CFA811A467B6813441B78002B04D088
:109FBC00FB894FF6FF729342F1D1FB894FF6FF728A
:109FCC00934201D102F0DCFDFB89013B9BB21846A8
:109FDC001037BD4680BD80B586B000AFF860B96063
:109FEC007A607B80F868FFF7D3FF0346BB82B868C2
:109FFC00FFF7CEFF03467B82BA8A7B8A13443B82EF
:10A00C00BA8A7B8A1A447B889A4201DD02F0B8FD39
:10A01C000023FB820AE0FB8AFA681A44FB8A7968FF
:10A02C000B4412781A70FB8A0133FB82FA8ABB8AC2
:10A03C009A42F0D3BB8AFB820DE0FA8ABB8AD31A10
:10A04C001A46BB681A44FB8A79680B4412781A705A
:10A05C00FB8A0133FB82FA8A3B8A9A42EDD900BF14
:10A06C0000BF1837BD4680BD80B588B000AFF86022
:10A07C00B9607A607B800023FB770023BB77FB6899
:10A08C00BB61BB687B6108E0BB7F0133BB777B693D
:10A09C00424AA2FB0323DB087B617B69002BF3D1D3
:10A0AC0008E0FB7F0133FB77BB693C4AA2FB03232F
:10A0BC00DB08BB61BB69002BF3D1FB7F002B01D10B
:10A0CC000123FB77BB7F002B01D10123BB77BA7F28
:10A0DC00BB691344DA1C7B889A4201D902F050FD0B
:10A0EC00FB7FBB61BB7F7B611BE0B9682B4BA3FB88
:10A0FC000123DA0813469B0013445B00CA1AD3B23F
:10A10C003033BB747B69013B7A681344BA7C1A7098
:10A11C007B69013B7B61BB68204AA2FB0323DB0804
:10A12C00BB607B69002BE0D1BB7F7A6813442C2287
:10A13C001A701CE0F968194BA3FB0123DA081346CB
:10A14C009B0013445B00CA1AD3B23033FB74BA7F42
:10A15C00BB6913447A681344FA7C1A70BB69013BDF
:10A16C00BB61FB680D4AA2FB0323DB08FB60BB69E8
:10A17C00002BDFD1BA7FFB7F134401337A68134481
:10A18C000A221A70BA7FFB7F134402337A68134495
:10A19C0000221A7000BF2037BD4680BDCDCCCCCC80
:10A1AC0080B5ADF5627D00AF3B1D18600A46FB1C07
:10A1BC001A70204B1B681B78002B35D03B1D1B687D
:10A1CC00002B31D0FB1C1B78002B29D007F51B7101
:10A1DC0007F50E70184B194AFEF736F907F51B7385
:10A1EC009B7D002B1CD107F10C030A221249184647
:10A1FC00FDF7A6FB3B1D1868FFF7CAFE0346A7F840
:10A20C008633B7F8862307F50D73391D07F10C005B
:10A21C000968FDF752FE07F10C031846FEF736F8F5
:10A22C000748FEF72FF900E000BF07F56277BD463F
:10A23C0080BD00BF440E0020744C0108844C010802
:10A24C00884C010880B584B000AF78600B46FB7079
:10A25C00124B1B681B78002B1BD101221049114893
:10A26C00FDF72EFB0346FB73FB7B002B04D00B4B43
:10A27C001B6800221A700DE0084B1B6801221A7033
:10A28C00FB78002B06D0FB7819467868FFF788FF1F
:10A29C0000E000BF1037BD4680BD00BF440E00205B
:10A2AC00944C0108100C002080B5ADF5207D00AF5A
:10A2BC0007F10C03186007F108031960BB1D1A8025
:10A2CC00294B1B681B78002B46D007F10C0140234F
:10A2DC00264A09682648FFF77EFE5823254A23495B
:10A2EC002548FFF778FE07F150030A22214918464A
:10A2FC00FDF726FB034687F87B3297F87B32002B61
:10A30C002CD10023C7F87C321BE0D7F87C329B00A1
:10A31C0007F1080212681344186807F11002402371
:10A32C00D7F87C12FFF7A0FE07F1500207F11003DB
:10A33C0011461846FEF729FAD7F87C320133C7F8D4
:10A34C007C32D7F87C32B3F5805FDED307F1500353
:10A35C001846FDF79BFF02E000BF00E000BF07F5C9
:10A36C002077BD4680BD00BF440E0020480E002063
:10A37C00844C0108880E0020884C010880B483B0FE
:10A38C0000AF0346FB71FB7903F00F03FB71FB7904
:10A39C00092B03D9FB793733DBB202E0FB7930337D
:10A3AC00DBB218460C37BD465DF8047B704790B5A0
:10A3BC0083B000AF78600B46FB701346BB707B68B4
:10A3CC0023221A70FB781B09DAB27B685C1C1046DE
:10A3DC00FFF7D4FF03462370FB7803F00F03DAB2C8
:10A3EC007B689C1C1046FFF7C9FF03462370BB78A3
:10A3FC001B09DAB27B68DC1C1046FFF7BFFF034673
:10A40C002370BB7803F00F03DAB27B681C1D104677
:10A41C00FFF7B4FF034623707B68053323221A70C1
:10A42C00BB7806331A467B68134423221A70BB7818
:10A43C0007331A467B68134400221A7000BF0C378E
:10A44C00BD4690BD80B487B000AF786039607B6842
:10A45C003B6108E0FB7D0133FB753B691D4AA2FBA8
:10A46C000323DB083B613B69002BF3D1FB7D002B05
:10A47C0001D10123FB75FB7DFB73FB7D3A68134413
:10A48C0000221A701BE0FB7D013BFB757968114BB8
:10A49C00A3FB0123DA0813469B0013445B00CA1A82
:10A4AC001346BB73FB7D3A681344BA7B3032D2B28D
:10A4BC001A707B68074AA2FB0323DB087B60FB7DD9
:10A4CC00002BE0D1FB7B18461C37BD465DF8047BA6
:10A4DC00704700BFCDCCCCCC80B5ADF55C7D00AF6A
:10A4EC003B1D1860824B1B681B78002B00F0F8801A
:10A4FC0007F59E730A227F491846FDF721FA034699
:10A50C0087F8693397F86933002B40F0EB803B1DDB
:10A51C001B681A7807F13C039A713B1D1B685A782B
:10A52C0007F13C03DA7107F13C03022201211846C2
:10A53C00FFF73DFF07F13C0207F13C00F0236E49A9
:10A54C00FFF749FD07F59E7207F13C0311461846CB
:10A55C00FEF71BF93B1D1B685B881A4607F12C03A1
:10A56C0019461046FFF76EFF034687F86833002341
:10A57C00A7F86E330FE0B7F86E23B7F86E330633D7
:10A58C0007F12C01895C07F13C02D154B7F86E330A
:10A59C000133A7F86E3397F868339BB2B7F86E2384
:10A5AC009A42E8D397F8682307F13C030221184636
:10A5BC00FFF7FDFE07F13C0207F13C00F0234F4989
:10A5CC00FFF709FD07F59E7207F13C03114618468B
:10A5DC00FEF7DBF83B1D1B689B881A4607F11C0332
:10A5EC0019461046FFF72EFF034687F86733002302
:10A5FC00A7F86C330FE0B7F86C23B7F86C3306335D
:10A60C0007F11C01895C07F13C02D154B7F86C339B
:10A61C000133A7F86C3397F867339BB2B7F86C2308
:10A62C009A42E8D397F8672307F13C0303211846B5
:10A63C00FFF7BDFE07F13C0207F13C00F023304967
:10A64C00FFF7C9FC07F59E7207F13C03114618464B
:10A65C00FEF79BF83B1D1B68DB881A4607F10C03C1
:10A66C0019461046FFF7EEFE034687F866330023C3
:10A67C00A7F86A330FE0B7F86A23B7F86A330633E2
:10A68C0007F10C01895C07F13C02D154B7F86A332D
:10A69C000133A7F86A3397F866339BB2B7F86A238D
:10A6AC009A42E8D397F8662307F13C030421184635
:10A6BC00FFF77DFE07F13C0207F13C00F023114946
:10A6CC00FFF789FC07F59E7207F13C03114618460B
:10A6DC00FEF75BF807F59E731846FDF7D7FD02E011
:10A6EC0000BF00E000BF07F55C77BD4680BD00BF32
:10A6FC00440E0020984C0108A44C0108BC4C0108E5
:10A70C00DC4C0108F44C010880B483B000AF034664
:10A71C00FB71FB792F2B07D9FB79392B04D8FB79EB
:10A72C0003F00F03DBB21AE0FB79602B09D9FB793C
:10A73C007A2B06D8FB79573BDBB203F00F03DBB265
:10A74C000DE0FB79402B09D9FB795A2B06D8FB7904
:10A75C00373BDBB203F00F03DBB200E000231846FB
:10A76C000C37BD465DF8047B704790B587B000AFE1
:10A77C00F860B9607A60F868FFF70AFC0346FB8260
:10A78C00FB8A052B01D801233EE0FB681B78232BA9
:10A79C0004D1FB6805331B78232B01D0012333E054
:10A7AC00FB6801331B781846FFF7AEFF03461B010D
:10A7BC00DCB2FB6802331B781846FFF7A5FF034693
:10A7CC002344DAB2BB681A70FB6803331B78184653
:10A7DC00FFF79AFF03461B01DCB2FB6804331B78BE
:10A7EC001846FFF791FF03462344DAB27B681A70D0
:10A7FC007B681B7806331A46FB6813441B78232BA3
:10A80C0001D0012300E0002318461C37BD4690BD43
:10A81C0080B485B000AF786039600023FB60002302
:10A82C00FB7211E0FB7A3A6813441B78303BBB7225
:10A83C00FA6813469B0013445B001A46BB7A134418
:10A84C00FB60FB7A0133FB72FB7A3A6813441B788A
:10A85C002F2B08D9FB7A3A6813441B78392B02D872
:10A86C00FB7A092BDED9FB7A0A2B01D17B68FB60C2
:10A87C00FB6818461437BD465DF8047B7047000032
:10A88C0080B5ADF5926D00AF3B1D18607C4B1B681D
:10A89C001B78002B00F0EC8007F55A7107F54D7012
:10A8AC00784B794AFDF7D0FD07F55A739B7D002B49
:10A8BC0004D13B1D1868FFF70FFEDCE007F584732D
:10A8CC00012270491846FDF73BF8034687F88F3490
:10A8DC0097F88F34002B40F0CD8007F5847207F188
:10A8EC000803FA211846FDF79BFEC7F88804D7F831
:10A8FC008834002B00F0B58007F2323207F2333186
:10A90C0007F108031846FFF730FF0346002B40F011
:10A91C00978007F233331B78013B032B00F29280B4
:10A92C0001A252F823F000BF45A90008DBA90008DA
:10A93C000DAA00082DAA000807F232331B78022B4F
:10A94C0040F0828007F108039B7987F8813407F186
:10A95C000803DB7987F8803497F881342F2B03D9DF
:10A96C0097F88134392B0FD997F88134602B03D9A0
:10A97C0097F881347A2B07D997F88134402B65D915
:10A98C0097F881345A2B61D897F880342F2B03D940
:10A99C0097F88034392B0FD997F88034602B03D972
:10A9AC0097F880347A2B07D997F88034402B4FD9FD
:10A9BC0097F880345A2B4BD83B1D1B6897F8812491
:10A9CC001A703B1D1B6897F880245A7043E007F1FE
:10A9DC000803063319468020FFF71AFF0346A7F831
:10A9EC008234B7F88234042B34D9B7F88234B3F5F7
:10A9FC007A7F2FD83B1D1B68B7F882245A802AE037
:10AA0C0007F10803063319460020FFF701FF034640
:10AA1C00A7F884343B1D1B68B7F884249A801AE08D
:10AA2C0007F10803063319460020FFF7F1FE034631
:10AA3C00A7F886343B1D1B68B7F88624DA800AE039
:10AA4C0000BF08E000BF06E000BF04E000BF02E06A
:10AA5C0000BF00E000BFD7F88834002B7FF43DAF77
:10AA6C0000E000BF07F584731846FDF70FFC02E009
:10AA7C0000BF00E000BF07F59267BD4680BD00BF78
:10AA8C00440E0020984C0108844C010880B483B01B
:10AA9C0000AF78600E4A7B6813600D4B1B68002278
:10AAAC001A700B4B1B684FF0FF325A607B68094AD7
:10AABC009A607B68084ADA607B68084A5A617B684E
:10AACC00074A1A6100BF0C37BD465DF8047B70471E
